{
  "abi": [
    {
      "inputs": [
        {
          "internalType": "contract IERC20",
          "name": "_oath",
          "type": "address"
        },
        {
          "internalType": "contract IEmissionCurve",
          "name": "_emissionCurve",
          "type": "address"
        }
      ],
      "stateMutability": "nonpayable",
      "type": "constructor"
    },
    {
      "anonymous": false,
      "inputs": [
        {
          "indexed": true,
          "internalType": "address",
          "name": "owner",
          "type": "address"
        },
        {
          "indexed": true,
          "internalType": "address",
          "name": "approved",
          "type": "address"
        },
        {
          "indexed": true,
          "internalType": "uint256",
          "name": "tokenId",
          "type": "uint256"
        }
      ],
      "name": "Approval",
      "type": "event"
    },
    {
      "anonymous": false,
      "inputs": [
        {
          "indexed": true,
          "internalType": "address",
          "name": "owner",
          "type": "address"
        },
        {
          "indexed": true,
          "internalType": "address",
          "name": "operator",
          "type": "address"
        },
        {
          "indexed": false,
          "internalType": "bool",
          "name": "approved",
          "type": "bool"
        }
      ],
      "name": "ApprovalForAll",
      "type": "event"
    },
    {
      "anonymous": false,
      "inputs": [
        {
          "indexed": true,
          "internalType": "uint256",
          "name": "pid",
          "type": "uint256"
        },
        {
          "indexed": false,
          "internalType": "uint256",
          "name": "amount",
          "type": "uint256"
        },
        {
          "indexed": true,
          "internalType": "address",
          "name": "to",
          "type": "address"
        },
        {
          "indexed": true,
          "internalType": "uint256",
          "name": "relicId",
          "type": "uint256"
        }
      ],
      "name": "Deposit",
      "type": "event"
    },
    {
      "anonymous": false,
      "inputs": [
        {
          "indexed": true,
          "internalType": "uint256",
          "name": "pid",
          "type": "uint256"
        },
        {
          "indexed": false,
          "internalType": "uint256",
          "name": "amount",
          "type": "uint256"
        },
        {
          "indexed": true,
          "internalType": "address",
          "name": "to",
          "type": "address"
        },
        {
          "indexed": true,
          "internalType": "uint256",
          "name": "relicId",
          "type": "uint256"
        }
      ],
      "name": "EmergencyWithdraw",
      "type": "event"
    },
    {
      "anonymous": false,
      "inputs": [
        {
          "indexed": true,
          "internalType": "uint256",
          "name": "pid",
          "type": "uint256"
        },
        {
          "indexed": false,
          "internalType": "uint256",
          "name": "amount",
          "type": "uint256"
        },
        {
          "indexed": true,
          "internalType": "uint256",
          "name": "relicId",
          "type": "uint256"
        }
      ],
      "name": "Harvest",
      "type": "event"
    },
    {
      "anonymous": false,
      "inputs": [
        {
          "indexed": true,
          "internalType": "uint256",
          "name": "relicId",
          "type": "uint256"
        },
        {
          "indexed": false,
          "internalType": "uint256",
          "name": "newLevel",
          "type": "uint256"
        }
      ],
      "name": "LevelChanged",
      "type": "event"
    },
    {
      "anonymous": false,
      "inputs": [
        {
          "indexed": true,
          "internalType": "uint256",
          "name": "pid",
          "type": "uint256"
        },
        {
          "indexed": false,
          "internalType": "uint256",
          "name": "allocPoint",
          "type": "uint256"
        },
        {
          "indexed": true,
          "internalType": "contract IERC20",
          "name": "poolToken",
          "type": "address"
        },
        {
          "indexed": true,
          "internalType": "contract IRewarder",
          "name": "rewarder",
          "type": "address"
        },
        {
          "indexed": false,
          "internalType": "contract INFTDescriptor",
          "name": "nftDescriptor",
          "type": "address"
        }
      ],
      "name": "LogPoolAddition",
      "type": "event"
    },
    {
      "anonymous": false,
      "inputs": [
        {
          "indexed": true,
          "internalType": "uint256",
          "name": "pid",
          "type": "uint256"
        },
        {
          "indexed": false,
          "internalType": "uint256",
          "name": "allocPoint",
          "type": "uint256"
        },
        {
          "indexed": true,
          "internalType": "contract IRewarder",
          "name": "rewarder",
          "type": "address"
        },
        {
          "indexed": false,
          "internalType": "contract INFTDescriptor",
          "name": "nftDescriptor",
          "type": "address"
        }
      ],
      "name": "LogPoolModified",
      "type": "event"
    },
    {
      "anonymous": false,
      "inputs": [
        {
          "indexed": true,
          "internalType": "contract IEmissionCurve",
          "name": "emissionCurveAddress",
          "type": "address"
        }
      ],
      "name": "LogSetEmissionCurve",
      "type": "event"
    },
    {
      "anonymous": false,
      "inputs": [
        {
          "indexed": true,
          "internalType": "uint256",
          "name": "pid",
          "type": "uint256"
        },
        {
          "indexed": false,
          "internalType": "uint256",
          "name": "lastRewardTime",
          "type": "uint256"
        },
        {
          "indexed": false,
          "internalType": "uint256",
          "name": "lpSupply",
          "type": "uint256"
        },
        {
          "indexed": false,
          "internalType": "uint256",
          "name": "accOathPerShare",
          "type": "uint256"
        }
      ],
      "name": "LogUpdatePool",
      "type": "event"
    },
    {
      "anonymous": false,
      "inputs": [
        {
          "indexed": true,
          "internalType": "uint256",
          "name": "fromId",
          "type": "uint256"
        },
        {
          "indexed": true,
          "internalType": "uint256",
          "name": "toId",
          "type": "uint256"
        },
        {
          "indexed": false,
          "internalType": "uint256",
          "name": "amount",
          "type": "uint256"
        }
      ],
      "name": "Merge",
      "type": "event"
    },
    {
      "anonymous": false,
      "inputs": [
        {
          "indexed": true,
          "internalType": "bytes32",
          "name": "role",
          "type": "bytes32"
        },
        {
          "indexed": true,
          "internalType": "bytes32",
          "name": "previousAdminRole",
          "type": "bytes32"
        },
        {
          "indexed": true,
          "internalType": "bytes32",
          "name": "newAdminRole",
          "type": "bytes32"
        }
      ],
      "name": "RoleAdminChanged",
      "type": "event"
    },
    {
      "anonymous": false,
      "inputs": [
        {
          "indexed": true,
          "internalType": "bytes32",
          "name": "role",
          "type": "bytes32"
        },
        {
          "indexed": true,
          "internalType": "address",
          "name": "account",
          "type": "address"
        },
        {
          "indexed": true,
          "internalType": "address",
          "name": "sender",
          "type": "address"
        }
      ],
      "name": "RoleGranted",
      "type": "event"
    },
    {
      "anonymous": false,
      "inputs": [
        {
          "indexed": true,
          "internalType": "bytes32",
          "name": "role",
          "type": "bytes32"
        },
        {
          "indexed": true,
          "internalType": "address",
          "name": "account",
          "type": "address"
        },
        {
          "indexed": true,
          "internalType": "address",
          "name": "sender",
          "type": "address"
        }
      ],
      "name": "RoleRevoked",
      "type": "event"
    },
    {
      "anonymous": false,
      "inputs": [
        {
          "indexed": true,
          "internalType": "uint256",
          "name": "fromId",
          "type": "uint256"
        },
        {
          "indexed": true,
          "internalType": "uint256",
          "name": "toId",
          "type": "uint256"
        },
        {
          "indexed": false,
          "internalType": "uint256",
          "name": "amount",
          "type": "uint256"
        }
      ],
      "name": "Shift",
      "type": "event"
    },
    {
      "anonymous": false,
      "inputs": [
        {
          "indexed": true,
          "internalType": "uint256",
          "name": "fromId",
          "type": "uint256"
        },
        {
          "indexed": true,
          "internalType": "uint256",
          "name": "toId",
          "type": "uint256"
        },
        {
          "indexed": false,
          "internalType": "uint256",
          "name": "amount",
          "type": "uint256"
        }
      ],
      "name": "Split",
      "type": "event"
    },
    {
      "anonymous": false,
      "inputs": [
        {
          "indexed": true,
          "internalType": "address",
          "name": "from",
          "type": "address"
        },
        {
          "indexed": true,
          "internalType": "address",
          "name": "to",
          "type": "address"
        },
        {
          "indexed": true,
          "internalType": "uint256",
          "name": "tokenId",
          "type": "uint256"
        }
      ],
      "name": "Transfer",
      "type": "event"
    },
    {
      "anonymous": false,
      "inputs": [
        {
          "indexed": true,
          "internalType": "uint256",
          "name": "pid",
          "type": "uint256"
        },
        {
          "indexed": false,
          "internalType": "uint256",
          "name": "amount",
          "type": "uint256"
        },
        {
          "indexed": true,
          "internalType": "address",
          "name": "to",
          "type": "address"
        },
        {
          "indexed": true,
          "internalType": "uint256",
          "name": "relicId",
          "type": "uint256"
        }
      ],
      "name": "Withdraw",
      "type": "event"
    },
    {
      "inputs": [],
      "name": "DEFAULT_ADMIN_ROLE",
      "outputs": [
        {
          "internalType": "bytes32",
          "name": "",
          "type": "bytes32"
        }
      ],
      "stateMutability": "view",
      "type": "function"
    },
    {
      "inputs": [
        {
          "internalType": "uint256",
          "name": "allocPoint",
          "type": "uint256"
        },
        {
          "internalType": "contract IERC20",
          "name": "_poolToken",
          "type": "address"
        },
        {
          "internalType": "contract IRewarder",
          "name": "_rewarder",
          "type": "address"
        },
        {
          "internalType": "uint256[]",
          "name": "requiredMaturity",
          "type": "uint256[]"
        },
        {
          "internalType": "uint256[]",
          "name": "allocPoints",
          "type": "uint256[]"
        },
        {
          "internalType": "uint256",
          "name": "startTime",
          "type": "uint256"
        },
        {
          "internalType": "string",
          "name": "name",
          "type": "string"
        },
        {
          "internalType": "contract INFTDescriptor",
          "name": "_nftDescriptor",
          "type": "address"
        }
      ],
      "name": "addPool",
      "outputs": [],
      "stateMutability": "nonpayable",
      "type": "function"
    },
    {
      "inputs": [
        {
          "internalType": "address",
          "name": "to",
          "type": "address"
        },
        {
          "internalType": "uint256",
          "name": "tokenId",
          "type": "uint256"
        }
      ],
      "name": "approve",
      "outputs": [],
      "stateMutability": "nonpayable",
      "type": "function"
    },
    {
      "inputs": [
        {
          "internalType": "address",
          "name": "owner",
          "type": "address"
        }
      ],
      "name": "balanceOf",
      "outputs": [
        {
          "internalType": "uint256",
          "name": "",
          "type": "uint256"
        }
      ],
      "stateMutability": "view",
      "type": "function"
    },
    {
      "inputs": [
        {
          "internalType": "uint256",
          "name": "tokenId",
          "type": "uint256"
        }
      ],
      "name": "burn",
      "outputs": [],
      "stateMutability": "nonpayable",
      "type": "function"
    },
    {
      "inputs": [
        {
          "internalType": "address",
          "name": "to",
          "type": "address"
        },
        {
          "internalType": "uint256",
          "name": "pid",
          "type": "uint256"
        },
        {
          "internalType": "uint256",
          "name": "amount",
          "type": "uint256"
        }
      ],
      "name": "createRelicAndDeposit",
      "outputs": [
        {
          "internalType": "uint256",
          "name": "id",
          "type": "uint256"
        }
      ],
      "stateMutability": "nonpayable",
      "type": "function"
    },
    {
      "inputs": [
        {
          "internalType": "uint256",
          "name": "amount",
          "type": "uint256"
        },
        {
          "internalType": "uint256",
          "name": "relicId",
          "type": "uint256"
        }
      ],
      "name": "deposit",
      "outputs": [],
      "stateMutability": "nonpayable",
      "type": "function"
    },
    {
      "inputs": [
        {
          "internalType": "uint256",
          "name": "relicId",
          "type": "uint256"
        }
      ],
      "name": "emergencyWithdraw",
      "outputs": [],
      "stateMutability": "nonpayable",
      "type": "function"
    },
    {
      "inputs": [],
      "name": "emissionCurve",
      "outputs": [
        {
          "internalType": "contract IEmissionCurve",
          "name": "",
          "type": "address"
        }
      ],
      "stateMutability": "view",
      "type": "function"
    },
    {
      "inputs": [
        {
          "internalType": "uint256",
          "name": "tokenId",
          "type": "uint256"
        }
      ],
      "name": "getApproved",
      "outputs": [
        {
          "internalType": "address",
          "name": "",
          "type": "address"
        }
      ],
      "stateMutability": "view",
      "type": "function"
    },
    {
      "inputs": [
        {
          "internalType": "uint256",
          "name": "pid",
          "type": "uint256"
        }
      ],
      "name": "getLevelInfo",
      "outputs": [
        {
          "components": [
            {
              "internalType": "uint256[]",
              "name": "requiredMaturity",
              "type": "uint256[]"
            },
            {
              "internalType": "uint256[]",
              "name": "allocPoint",
              "type": "uint256[]"
            },
            {
              "internalType": "uint256[]",
              "name": "balance",
              "type": "uint256[]"
            }
          ],
          "internalType": "struct LevelInfo",
          "name": "levelInfo",
          "type": "tuple"
        }
      ],
      "stateMutability": "view",
      "type": "function"
    },
    {
      "inputs": [
        {
          "internalType": "uint256",
          "name": "pid",
          "type": "uint256"
        }
      ],
      "name": "getPoolInfo",
      "outputs": [
        {
          "components": [
            {
              "internalType": "uint256",
              "name": "startTime",
              "type": "uint256"
            },
            {
              "internalType": "uint256",
              "name": "accOathPerShare",
              "type": "uint256"
            },
            {
              "internalType": "uint256",
              "name": "lastRewardTime",
              "type": "uint256"
            },
            {
              "internalType": "uint256",
              "name": "allocPoint",
              "type": "uint256"
            },
            {
              "internalType": "string",
              "name": "name",
              "type": "string"
            }
          ],
          "internalType": "struct PoolInfo",
          "name": "pool",
          "type": "tuple"
        }
      ],
      "stateMutability": "view",
      "type": "function"
    },
    {
      "inputs": [
        {
          "internalType": "uint256",
          "name": "relicId",
          "type": "uint256"
        }
      ],
      "name": "getPositionForId",
      "outputs": [
        {
          "components": [
            {
              "internalType": "uint256",
              "name": "amount",
              "type": "uint256"
            },
            {
              "internalType": "uint256",
              "name": "rewardDebt",
              "type": "uint256"
            },
            {
              "internalType": "uint256",
              "name": "rewardCredit",
              "type": "uint256"
            },
            {
              "internalType": "uint256",
              "name": "entry",
              "type": "uint256"
            },
            {
              "internalType": "uint256",
              "name": "poolId",
              "type": "uint256"
            },
            {
              "internalType": "uint256",
              "name": "level",
              "type": "uint256"
            }
          ],
          "internalType": "struct PositionInfo",
          "name": "position",
          "type": "tuple"
        }
      ],
      "stateMutability": "view",
      "type": "function"
    },
    {
      "inputs": [
        {
          "internalType": "bytes32",
          "name": "role",
          "type": "bytes32"
        }
      ],
      "name": "getRoleAdmin",
      "outputs": [
        {
          "internalType": "bytes32",
          "name": "",
          "type": "bytes32"
        }
      ],
      "stateMutability": "view",
      "type": "function"
    },
    {
      "inputs": [
        {
          "internalType": "bytes32",
          "name": "role",
          "type": "bytes32"
        },
        {
          "internalType": "uint256",
          "name": "index",
          "type": "uint256"
        }
      ],
      "name": "getRoleMember",
      "outputs": [
        {
          "internalType": "address",
          "name": "",
          "type": "address"
        }
      ],
      "stateMutability": "view",
      "type": "function"
    },
    {
      "inputs": [
        {
          "internalType": "bytes32",
          "name": "role",
          "type": "bytes32"
        }
      ],
      "name": "getRoleMemberCount",
      "outputs": [
        {
          "internalType": "uint256",
          "name": "",
          "type": "uint256"
        }
      ],
      "stateMutability": "view",
      "type": "function"
    },
    {
      "inputs": [
        {
          "internalType": "bytes32",
          "name": "role",
          "type": "bytes32"
        },
        {
          "internalType": "address",
          "name": "account",
          "type": "address"
        }
      ],
      "name": "grantRole",
      "outputs": [],
      "stateMutability": "nonpayable",
      "type": "function"
    },
    {
      "inputs": [
        {
          "internalType": "uint256",
          "name": "relicId",
          "type": "uint256"
        }
      ],
      "name": "harvest",
      "outputs": [],
      "stateMutability": "nonpayable",
      "type": "function"
    },
    {
      "inputs": [
        {
          "internalType": "bytes32",
          "name": "role",
          "type": "bytes32"
        },
        {
          "internalType": "address",
          "name": "account",
          "type": "address"
        }
      ],
      "name": "hasRole",
      "outputs": [
        {
          "internalType": "bool",
          "name": "",
          "type": "bool"
        }
      ],
      "stateMutability": "view",
      "type": "function"
    },
    {
      "inputs": [
        {
          "internalType": "address",
          "name": "owner",
          "type": "address"
        },
        {
          "internalType": "address",
          "name": "operator",
          "type": "address"
        }
      ],
      "name": "isApprovedForAll",
      "outputs": [
        {
          "internalType": "bool",
          "name": "",
          "type": "bool"
        }
      ],
      "stateMutability": "view",
      "type": "function"
    },
    {
      "inputs": [
        {
          "internalType": "uint256[]",
          "name": "pids",
          "type": "uint256[]"
        }
      ],
      "name": "massUpdatePools",
      "outputs": [],
      "stateMutability": "nonpayable",
      "type": "function"
    },
    {
      "inputs": [
        {
          "internalType": "uint256",
          "name": "fromId",
          "type": "uint256"
        },
        {
          "internalType": "uint256",
          "name": "toId",
          "type": "uint256"
        }
      ],
      "name": "merge",
      "outputs": [],
      "stateMutability": "nonpayable",
      "type": "function"
    },
    {
      "inputs": [
        {
          "internalType": "uint256",
          "name": "pid",
          "type": "uint256"
        },
        {
          "internalType": "uint256",
          "name": "allocPoint",
          "type": "uint256"
        },
        {
          "internalType": "contract IRewarder",
          "name": "_rewarder",
          "type": "address"
        },
        {
          "internalType": "string",
          "name": "name",
          "type": "string"
        },
        {
          "internalType": "contract INFTDescriptor",
          "name": "_nftDescriptor",
          "type": "address"
        },
        {
          "internalType": "bool",
          "name": "overwriteRewarder",
          "type": "bool"
        }
      ],
      "name": "modifyPool",
      "outputs": [],
      "stateMutability": "nonpayable",
      "type": "function"
    },
    {
      "inputs": [
        {
          "internalType": "bytes[]",
          "name": "data",
          "type": "bytes[]"
        }
      ],
      "name": "multicall",
      "outputs": [
        {
          "internalType": "bytes[]",
          "name": "results",
          "type": "bytes[]"
        }
      ],
      "stateMutability": "nonpayable",
      "type": "function"
    },
    {
      "inputs": [],
      "name": "name",
      "outputs": [
        {
          "internalType": "string",
          "name": "",
          "type": "string"
        }
      ],
      "stateMutability": "view",
      "type": "function"
    },
    {
      "inputs": [
        {
          "internalType": "uint256",
          "name": "",
          "type": "uint256"
        }
      ],
      "name": "nftDescriptor",
      "outputs": [
        {
          "internalType": "contract INFTDescriptor",
          "name": "",
          "type": "address"
        }
      ],
      "stateMutability": "view",
      "type": "function"
    },
    {
      "inputs": [],
      "name": "oath",
      "outputs": [
        {
          "internalType": "contract IERC20",
          "name": "",
          "type": "address"
        }
      ],
      "stateMutability": "view",
      "type": "function"
    },
    {
      "inputs": [
        {
          "internalType": "uint256",
          "name": "tokenId",
          "type": "uint256"
        }
      ],
      "name": "ownerOf",
      "outputs": [
        {
          "internalType": "address",
          "name": "",
          "type": "address"
        }
      ],
      "stateMutability": "view",
      "type": "function"
    },
    {
      "inputs": [
        {
          "internalType": "uint256",
          "name": "relicId",
          "type": "uint256"
        }
      ],
      "name": "pendingOath",
      "outputs": [
        {
          "internalType": "uint256",
          "name": "pending",
          "type": "uint256"
        }
      ],
      "stateMutability": "view",
      "type": "function"
    },
    {
      "inputs": [],
      "name": "poolLength",
      "outputs": [
        {
          "internalType": "uint256",
          "name": "pools",
          "type": "uint256"
        }
      ],
      "stateMutability": "view",
      "type": "function"
    },
    {
      "inputs": [
        {
          "internalType": "uint256",
          "name": "",
          "type": "uint256"
        }
      ],
      "name": "poolToken",
      "outputs": [
        {
          "internalType": "contract IERC20",
          "name": "",
          "type": "address"
        }
      ],
      "stateMutability": "view",
      "type": "function"
    },
    {
      "inputs": [
        {
          "internalType": "bytes32",
          "name": "role",
          "type": "bytes32"
        },
        {
          "internalType": "address",
          "name": "account",
          "type": "address"
        }
      ],
      "name": "renounceRole",
      "outputs": [],
      "stateMutability": "nonpayable",
      "type": "function"
    },
    {
      "inputs": [
        {
          "internalType": "bytes32",
          "name": "role",
          "type": "bytes32"
        },
        {
          "internalType": "address",
          "name": "account",
          "type": "address"
        }
      ],
      "name": "revokeRole",
      "outputs": [],
      "stateMutability": "nonpayable",
      "type": "function"
    },
    {
      "inputs": [
        {
          "internalType": "uint256",
          "name": "",
          "type": "uint256"
        }
      ],
      "name": "rewarder",
      "outputs": [
        {
          "internalType": "contract IRewarder",
          "name": "",
          "type": "address"
        }
      ],
      "stateMutability": "view",
      "type": "function"
    },
    {
      "inputs": [
        {
          "internalType": "address",
          "name": "from",
          "type": "address"
        },
        {
          "internalType": "address",
          "name": "to",
          "type": "address"
        },
        {
          "internalType": "uint256",
          "name": "tokenId",
          "type": "uint256"
        }
      ],
      "name": "safeTransferFrom",
      "outputs": [],
      "stateMutability": "nonpayable",
      "type": "function"
    },
    {
      "inputs": [
        {
          "internalType": "address",
          "name": "from",
          "type": "address"
        },
        {
          "internalType": "address",
          "name": "to",
          "type": "address"
        },
        {
          "internalType": "uint256",
          "name": "tokenId",
          "type": "uint256"
        },
        {
          "internalType": "bytes",
          "name": "data",
          "type": "bytes"
        }
      ],
      "name": "safeTransferFrom",
      "outputs": [],
      "stateMutability": "nonpayable",
      "type": "function"
    },
    {
      "inputs": [
        {
          "internalType": "address",
          "name": "operator",
          "type": "address"
        },
        {
          "internalType": "bool",
          "name": "approved",
          "type": "bool"
        }
      ],
      "name": "setApprovalForAll",
      "outputs": [],
      "stateMutability": "nonpayable",
      "type": "function"
    },
    {
      "inputs": [
        {
          "internalType": "contract IEmissionCurve",
          "name": "_emissionCurve",
          "type": "address"
        }
      ],
      "name": "setEmissionCurve",
      "outputs": [],
      "stateMutability": "nonpayable",
      "type": "function"
    },
    {
      "inputs": [
        {
          "internalType": "uint256",
          "name": "fromId",
          "type": "uint256"
        },
        {
          "internalType": "uint256",
          "name": "toId",
          "type": "uint256"
        },
        {
          "internalType": "uint256",
          "name": "amount",
          "type": "uint256"
        }
      ],
      "name": "shift",
      "outputs": [],
      "stateMutability": "nonpayable",
      "type": "function"
    },
    {
      "inputs": [
        {
          "internalType": "uint256",
          "name": "fromId",
          "type": "uint256"
        },
        {
          "internalType": "uint256",
          "name": "amount",
          "type": "uint256"
        },
        {
          "internalType": "address",
          "name": "to",
          "type": "address"
        }
      ],
      "name": "split",
      "outputs": [
        {
          "internalType": "uint256",
          "name": "newId",
          "type": "uint256"
        }
      ],
      "stateMutability": "nonpayable",
      "type": "function"
    },
    {
      "inputs": [
        {
          "internalType": "bytes4",
          "name": "interfaceId",
          "type": "bytes4"
        }
      ],
      "name": "supportsInterface",
      "outputs": [
        {
          "internalType": "bool",
          "name": "",
          "type": "bool"
        }
      ],
      "stateMutability": "view",
      "type": "function"
    },
    {
      "inputs": [],
      "name": "symbol",
      "outputs": [
        {
          "internalType": "string",
          "name": "",
          "type": "string"
        }
      ],
      "stateMutability": "view",
      "type": "function"
    },
    {
      "inputs": [
        {
          "internalType": "uint256",
          "name": "index",
          "type": "uint256"
        }
      ],
      "name": "tokenByIndex",
      "outputs": [
        {
          "internalType": "uint256",
          "name": "",
          "type": "uint256"
        }
      ],
      "stateMutability": "view",
      "type": "function"
    },
    {
      "inputs": [
        {
          "internalType": "address",
          "name": "owner",
          "type": "address"
        },
        {
          "internalType": "uint256",
          "name": "index",
          "type": "uint256"
        }
      ],
      "name": "tokenOfOwnerByIndex",
      "outputs": [
        {
          "internalType": "uint256",
          "name": "",
          "type": "uint256"
        }
      ],
      "stateMutability": "view",
      "type": "function"
    },
    {
      "inputs": [
        {
          "internalType": "uint256",
          "name": "tokenId",
          "type": "uint256"
        }
      ],
      "name": "tokenURI",
      "outputs": [
        {
          "internalType": "string",
          "name": "",
          "type": "string"
        }
      ],
      "stateMutability": "view",
      "type": "function"
    },
    {
      "inputs": [],
      "name": "totalAllocPoint",
      "outputs": [
        {
          "internalType": "uint256",
          "name": "",
          "type": "uint256"
        }
      ],
      "stateMutability": "view",
      "type": "function"
    },
    {
      "inputs": [],
      "name": "totalSupply",
      "outputs": [
        {
          "internalType": "uint256",
          "name": "",
          "type": "uint256"
        }
      ],
      "stateMutability": "view",
      "type": "function"
    },
    {
      "inputs": [
        {
          "internalType": "address",
          "name": "from",
          "type": "address"
        },
        {
          "internalType": "address",
          "name": "to",
          "type": "address"
        },
        {
          "internalType": "uint256",
          "name": "tokenId",
          "type": "uint256"
        }
      ],
      "name": "transferFrom",
      "outputs": [],
      "stateMutability": "nonpayable",
      "type": "function"
    },
    {
      "inputs": [
        {
          "internalType": "uint256",
          "name": "pid",
          "type": "uint256"
        }
      ],
      "name": "updatePool",
      "outputs": [],
      "stateMutability": "nonpayable",
      "type": "function"
    },
    {
      "inputs": [
        {
          "internalType": "uint256",
          "name": "relicId",
          "type": "uint256"
        }
      ],
      "name": "updatePosition",
      "outputs": [],
      "stateMutability": "nonpayable",
      "type": "function"
    },
    {
      "inputs": [
        {
          "internalType": "uint256",
          "name": "amount",
          "type": "uint256"
        },
        {
          "internalType": "uint256",
          "name": "relicId",
          "type": "uint256"
        }
      ],
      "name": "withdraw",
      "outputs": [],
      "stateMutability": "nonpayable",
      "type": "function"
    },
    {
      "inputs": [
        {
          "internalType": "uint256",
          "name": "amount",
          "type": "uint256"
        },
        {
          "internalType": "uint256",
          "name": "relicId",
          "type": "uint256"
        }
      ],
      "name": "withdrawAndHarvest",
      "outputs": [],
      "stateMutability": "nonpayable",
      "type": "function"
    }
  ],
  "bytecode": {
    "object": "0x60a0346200042a57601f9062005f5290601f19906001600160401b03388490038581018416830190828211848310176200041457808491604097889485528339810103126200042a5781516001600160a01b039081811681036200042a576020809401519182168092036200042a57620000786200042f565b92601184527014995b1a5c5d585c9e4811195c1bdcda5d607a1b85850152620000a06200042f565b600581526452454c494360d81b8682015284519682881162000414576000978854966001978881811c9116801562000409575b8a821014620003f55790818d849311620003a2575b5089908d831160011462000341578b9262000335575b5050600019600383901b1c191690871b1788555b8151928311620003215785548681811c9116801562000316575b8882101462000302578a8111620002ba575b50869983116001146200024c57509080620001ba9899600b9796959493899262000240575b5050600019600383901b1c191690841b1783555b82600c5560805260018060a01b0319600f541617600f55838052600a8252858420338552825260ff868520541615620001f5575b5082805252823391206200044f565b5051615a759081620004dd8239608051818181610271015281816105c201528181611c570152818161276201528181612c89015261334f0152f35b838052600a825285842033855282528584209060ff198254161790553333847f2f8788117e7eff1d82e926ec794901d17c78024a50270940304540a733656f0d818951a438620001ab565b01519050388062000163565b8588528688209991908316885b818110620002a4575099869594939192600b98979383620001ba9c9d106200028a575b505050811b01835562000177565b015160001960f88460031b161c191690553880806200027c565b828401518c559a87019a92880192880162000259565b8689528789208b80860160051c8201928a8710620002f8575b0160051c019087905b828110620002ec5750506200013e565b8a8155018790620002dc565b92508192620002d3565b634e487b7160e01b89526022600452602489fd5b90607f16906200012c565b634e487b7160e01b88526041600452602488fd5b015190503880620000fe565b90848a9416918c80528b8d20928d5b8d8282106200038b575050841162000371575b505050811b01885562000112565b015160001960f88460031b161c1916905538808062000363565b8385015186558d9790950194938401930162000350565b9091508a8052898b208d80850160051c8201928c8610620003eb575b918b91869594930160051c01915b828110620003dc575050620000e8565b8d81558594508b9101620003cc565b92508192620003be565b634e487b7160e01b8b52602260045260248bfd5b90607f1690620000d3565b634e487b7160e01b600052604160045260246000fd5b600080fd5b60408051919082016001600160401b038111838210176200041457604052565b91906001830160009082825280602052604082205415600014620004d65784549468010000000000000000861015620004c25760018601808255861015620004ae57836040949596828552602085200155549382526020522055600190565b634e487b7160e01b83526032600452602483fd5b634e487b7160e01b83526041600452602483fd5b5092505056fe608080604052600436101561001357600080fd5b60003560e01c90816301ffc9a7146137a657508063030101db146136e457806306fdde0314613641578063081812fc14613623578063081e3eda14613605578063095ea7b31461348657806309f1c80a146131f357806317caf6f1146131d557806318160ddd146131b7578063215e83eb1461315c57806323b872dd14613138578063248a9ca3146131095780632f2ff15d146130405780632f380b3514612ee65780632f745c5914612e34578063348b597f14612a4257806336568abe146129b057806342842e0e1461297d57806342966c68146128b6578063441a3e70146125065780634f6ccce71461247557806351eb05a6146124495780635312ea8e146122f757806353cdb75314611b9357806357a5b58c14611b2b5780636352211e14611afb5780636705fcf314611a945780636e7d401914611a395780636ecbae3f146117e957806370a08231146117c65780637747dd811461164e5780638d74c2bf146113635780639010d07c1461131c57806391d14854146112cf57806395d89b41146111f05780639a67759b146111c75780639c751805146111a1578063a217fddf14611185578063a22cb465146110b3578063ac9650d814610f14578063b88d4fde14610e8f578063b9be8cd514610be1578063c346253d14610b86578063c87b56dd14610a24578063ca15c873146109f8578063d1c2babb1461075b578063d547741f1461071a578063ddc63262146103ef578063e2bbb158146103c0578063e48dc135146102fb578063e985e9c5146102a55763f484160b1461025b57600080fd5b346102a05760003660031901126102a0576040517f00000000000000000000000000000000000000000000000000000000000000006001600160a01b03168152602090f35b600080fd5b346102a05760403660031901126102a0576102be6138f5565b6102c661390b565b9060018060a01b03809116600052600560205260406000209116600052602052602060ff604060002054166040519015158152f35b346102a05760203660031901126102a057600060a060405161031c81613adc565b8281528260208201528260408201528260608201528260808201520152600435600052601460205260c0604060002060405161035781613adc565b8154918282526001810154602083019081526002820154604084019081526003830154916060850192835260a0600560048601549560808801968752015495019485526040519586525160208601525160408501525160608401525160808301525160a0820152f35b346102a0576103e86103d136613a60565b906103da614d29565b6103e382614765565b61406b565b6001600c55005b346102a0576020806003193601126102a05760043561040c614d29565b61041581614765565b806000526014825260406000209160048301549061043282613f85565b8454946000956005820154926104478761460f565b93808514610706576104f0916104d2826104c46104b08960026104798e8b6104a96104806105239c8661047986613c28565b5001613a13565b6104938294925492838360031b1c613e28565b919060031b600019811b9283911b169119161790565b9055613c28565b81929154906104938a838360031b1c613cc4565b90555b60016104798b613c28565b93906104f5836104f064e8d4a51000978894549060031b1c89613e15565b613e15565b049461051661050a6001890197885490613e28565b9860016104798d613c28565b90549060031b1c90613e15565b04905585806106fd575b156105945794600281929394959601610547848254613cc4565b90555b6105805750907f4ec2d4038813a7f233af1d6d09519189db3ed5bc5b823bf72f6d3144574721de91604051908152a36001600c55005b634e487b7160e01b81526021600452602490fd5b600201946105a3865483613cc4565b6040516370a0823160e01b8152306004820152966001600160a01b03907f000000000000000000000000000000000000000000000000000000000000000090868a6024818686165afa80156106f25785969798999a86916106c1575b50848111156106b657506106138480613e28565b905582610623575b50505061054a565b8261062f913390614d7f565b610638876139a5565b90549060031b1c16908161064d575b8061061b565b908092503b156106b2578291604483926040519485938492634a29330d60e01b84528c600485015260248401525af180156106a757908291610690575b80610647565b61069990613af7565b6106a457808661068a565b80fd5b6040513d84823e3d90fd5b8280fd5b610613908095613e28565b809650898092503d83116106eb575b6106da8183613b40565b810103126102a0578594518b6105ff565b503d6106d0565b6040513d87823e3d90fd5b5081151561052d565b97506105236104f0916104d260009a6104c7565b346102a05760403660031901126102a05761075960043561073961390b565b9080600052600a602052610754600160406000200154614b94565b614c9f565b005b346102a05761076936613a60565b610771614d29565b8082146109b35761078182614765565b61078a81614765565b8160005260146020526040600020918254600484015493836000526040600020916107ba60048401548714614421565b8254926107c78285613cc4565b92831561096e5760038101546107dd9084613e15565b84600384019182546107ef9089613e15565b6107f891613cc4565b9061080291613e35565b90558382556108158486858b8b8b61446d565b9199909261082282613f85565b9761082c83613c28565b509060019c8d8093019061083f91613a13565b905461084f9160031b1c89613e15565b958261085a86613c28565b50019061086691613a13565b96909164e8d4a51000978893549060031b1c61088191613e15565b61088a91613cc4565b610894908b613e15565b0460028301546108a391613cc4565b9101546108af91613e28565b938a81019485546108bf91613e28565b928b8415156109047f285dbc28e663286c77e3cd79d1cf1525744b4dfe015f41295fe5ae2858880bdf9b60209b61090a986105169761047995610956575b5050613e15565b94613c28565b0490556109168461512d565b836000526014825261094a604060002060056000918281558260018201558260028201558260038201558260048201550155565b604051908152a3600c55005b60026109659101918254613cc4565b905538806108fd565b60405162461bcd60e51b815260206004820152601960248201527f63616e6e6f74206d6572676520656d7074792052656c696373000000000000006044820152606490fd5b60405162461bcd60e51b815260206004820152601760248201527f63616e6e6f74206d657267652073616d652052656c69630000000000000000006044820152606490fd5b346102a05760203660031901126102a057600435600052600b6020526020604060002054604051908152f35b346102a0576020806003193601126102a0576004356000818152600260205260409020549091906001600160a01b031615610b4b57600082602493825260148352610a7560046040842001546139dc565b9490549160405195869384926344a5a61760e11b8452600484015260018060a01b039160031b1c165afa918215610b3f57600092610ac7575b50610ac36040519282849384528301906138d0565b0390f35b9091503d806000833e610ada8183613b40565b81019082818303126102a0578051906001600160401b0382116102a0570181601f820112156102a0578051610b0e81613b61565b92610b1c6040519485613b40565b8184528482840101116102a057610b38918480850191016138ad565b9082610aae565b6040513d6000823e3d90fd5b6064906040519062461bcd60e51b8252600482015260146024820152731d1bdad95b88191bd95cc81b9bdd08195e1a5cdd60621b6044820152fd5b346102a05760203660031901126102a0576004356013548110156102a05760136000527f66de8ffda797e3de9c05e8fc57b3bf0ec28a930d40b0d285d93c06501cf6a09001546040516001600160a01b039091168152602090f35b346102a05760603660031901126102a057602435600435610c00614d29565b60443515610e4a57818114610e0557610c1881614765565b610c2182614765565b80600052601460205260406000208054806044351115610c40906143d5565b60048201549184600052601460205260406000209260048401548114610c6590614421565b8354926003830154610c779082613e15565b60038601908154610c889087613e15565b610c9191613cc4565b610c9b8684613cc4565b610ca491613e35565b9055610cb260443582613e28565b80845593610cc260443582613cc4565b80875594610cd68683604435878d8d61446d565b93610ce387939293613f85565b928392610cef89613c28565b5060010190610cfd91613a13565b9054610d0d9160031b1c84613e15565b9687610d1891613e15565b64e8d4a51000900460018a0154610d2e91613e28565b80610dee575b50610d3e88613c28565b5060010190610d4c91613a13565b90549060031b1c610d5c91613e15565b90610d6691613e15565b64e8d4a5100090049760018101988954610d7f91613e28565b9182151598610db898600164e8d4a51000610daf6105169a8399839f99610904996104799b610956575050613e15565b04910155613e15565b0490557fda2a03409498a5fe8db3da030754afa618bc2228c0517ec5fa8c9b052979e9ea60206040516044358152a36001600c55005b610dfd60028b01918254613cc4565b90558d610d34565b60405162461bcd60e51b815260206004820152601c60248201527f63616e6e6f7420736869667420696e746f2073616d652052656c6963000000006044820152606490fd5b60405162461bcd60e51b815260206004820152601860248201527f63616e6e6f74207368696674207a65726f20616d6f756e7400000000000000006044820152606490fd5b346102a05760803660031901126102a057610ea86138f5565b610eb061390b565b90606435906044356001600160401b0383116102a057366023840112156102a05761075993610eec610f0f943690602481600401359101613b7c565b92610eff610efa84336150bf565b614fea565b610f0a838383615301565b6156aa565b61509f565b346102a0576020806003193601126102a0576001600160401b036004358181116102a057610f46903690600401613a76565b9091610f5182613d79565b92610f5f6040519485613b40565b828452601f19610f6e84613d79565b018560005b8281106110a45750505060005b838110610fe557604080518781528651818901819052600092600582901b8301810191898b01918b9085015b828710610fb95785850386f35b909192938280610fd5600193603f198a820301865288516138d0565b9601920196019592919092610fac565b8060051b820135601e19833603018112156102a0578201908135918483116102a057870182360381136102a0576110246110849161109f943691613b7c565b6000806040519261103484613aa6565b602784527f416464726573733a206c6f772d6c6576656c2064656c65676174652063616c6c8c850152660819985a5b195960ca1b60408501528b81519101305af461107d615586565b9030615725565b61108e82886157be565b5261109981876157be565b506147b3565b610f80565b60608782018301528101610f73565b346102a05760403660031901126102a0576110cc6138f5565b602435908115158092036102a0576001600160a01b03169033821461114057336000526005602052604060002082600052602052604060002060ff1981541660ff83161790556040519081527f17307eab39ab6107e8899845ad3d59bd9653f200f220920489ca2b5937696c3160203392a3005b60405162461bcd60e51b815260206004820152601960248201527f4552433732313a20617070726f766520746f2063616c6c6572000000000000006044820152606490fd5b346102a05760003660031901126102a057602060405160008152f35b346102a05760203660031901126102a05760206111bf600435613e55565b604051908152f35b346102a05760003660031901126102a057600f546040516001600160a01b039091168152602090f35b346102a05760003660031901126102a0576040516000600180549061121482613bee565b808552918181169081156112a8575060011461124f575b610ac38461123b81860382613b40565b6040519182916020835260208301906138d0565b600081815292507fb10e2d527612073b26eecdfd717e6a320cf44b4afac2b0732d9fcbe2b7fa0cf65b82841061129057505050810160200161123b8261122b565b80546020858701810191909152909301928101611278565b60ff191660208087019190915292151560051b8501909201925061123b915083905061122b565b346102a05760403660031901126102a0576112e861390b565b600435600052600a60205260406000209060018060a01b0316600052602052602060ff604060002054166040519015158152f35b346102a05760403660031901126102a057600435600052600b602052602061134a6024356040600020613a13565b905460405160039290921b1c6001600160a01b03168152f35b346102a05760c03660031901126102a05760248035600435611383613921565b606435906001600160401b03908183116102a057366023840112156102a05782600401359182116102a057368683850101116102a0576001600160a01b03926084359290848416908185036102a05760a4359283151584036102a0576113e76149a6565b6010548089101561160a5760005b8181106115f7575050600461140989613bb3565b50858b61141881601554613cc4565b6114286003850191825490613e28565b611433811515613cd1565b601555556115c2575b01916114528261144c8554613bee565b85613d34565b600090601f831160011461152d579a82917ffa4328c2a1268b2b661914d91df191c5271c699ddc97ccedda086c6d25b099f99a9b9c600093611520575b5050508160011b916000199060031b1c19161790555b6114ce6114b1886139dc565b819391549060031b60018060a01b03811b9283911b169119161790565b905515611504576114ff90915b604080519788526001600160a01b0390911660208801529190921694918291820190565b0390a3005b506114ff82611512866139a5565b90549060031b1c16916114db565b01013590508b808061148f565b60008481526020808220949d929391601f198f16915b8282106115a8575050918d93917ffa4328c2a1268b2b661914d91df191c5271c699ddc97ccedda086c6d25b099f99c9d9e600196941061158c575b50505050811b0190556114a5565b60001960f88660031b161c19920101351690558b80808061157e565b8060018598878395978a0101358155019701930190611543565b6115f06115ce8b6139a5565b8b8a939293169083549060031b60018060a01b03811b9283911b169119161790565b905561143c565b80611603600192613f85565b50016113f5565b60405162461bcd60e51b8152602060048201526018818d01527f7365743a20706f6f6c20646f6573206e6f7420657869737400000000000000006044820152606490fd5b346102a05760603660031901126102a05760043560243561166d613921565b611675614d29565b811561178157827fcf0974dfd867840133a0d4b02f1672f24017796fb8892d1e0d587692e4da90ab60206001946116ac8297614765565b83600052601482526040600020946116dd8654916116cc838511156143d5565b6116d68484613e28565b88556147c2565b96879687600052601485526117696040600020938585556003830154600386015561172860058401548060058801556105166004860154918260048a01558761047961090485613f85565b92839161176064e8d4a51000958287611742838296613e15565b04946117538a820196875490613e28565b9081610956575050613e15565b04905585613e15565b04910155604051908152a36001600c55604051908152f35b60405162461bcd60e51b815260206004820152601860248201527f63616e6e6f742073706c6974207a65726f20616d6f756e7400000000000000006044820152606490fd5b346102a05760203660031901126102a05760206111bf6117e46138f5565b614ec6565b346102a0576020806003193601126102a0576004356001600160a01b038116908190036102a0577ff0df1ecf66245243e1fe66eca783e2b1f173c34d37828b8788a74623e9a73e029182600052600a8152604060002033600052815260ff604060002054161561189257600f80546001600160a01b03191683179055604051600090837f097cb0b4d8d03c9f5f6d24fdb4d1c0764243aab030e9e385b0295badfe7a73e28383a2f35b905061189d336157e3565b916040516118aa81613b25565b60428152828101916060368437815115611a2357603083538151600190811015611a2357607860218401536041905b8082116119c957505061198657611952936119619260489260405196879376020b1b1b2b9b9a1b7b73a3937b61d1030b1b1b7bab73a1604d1b88860152611929815180928a6037890191016138ad565b8401917001034b99036b4b9b9b4b733903937b6329607d1b6037840152518093868401906138ad565b01036028810185520183613b40565b61198260405192839262461bcd60e51b8452600484015260248301906138d0565b0390fd5b6064836040519062461bcd60e51b825280600483015260248201527f537472696e67733a20686578206c656e67746820696e73756666696369656e746044820152fd5b9091600f81166010811015611a23576f181899199a1a9b1b9c1cb0b131b232b360811b901a6119f884866157d2565b5360041c918015611a0d5760001901906118d9565b634e487b7160e01b600052601160045260246000fd5b634e487b7160e01b600052603260045260246000fd5b346102a05760203660031901126102a0576004356012548110156102a05760126000527fbb8a6a4669ba250d26cd7a459eca9d215f8307e33aebe50379bc5a3617ec344401546040516001600160a01b039091168152602090f35b346102a05760603660031901126102a0576020611aaf6138f5565b611ad060243591611abe614d29565b611acb6010548410613f47565b6147c2565b908160005260148352600460406000200155611aee8160443561406b565b6001600c55604051908152f35b346102a05760203660031901126102a0576020611b19600435614f89565b6040516001600160a01b039091168152f35b346102a05760203660031901126102a0576004356001600160401b0381116102a057611b5b903690600401613a76565b90611b64614d29565b60005b828110611b75576001600c55005b80611b8c611b866001938686613cb4565b35613f85565b5001611b67565b346102a0576101003660031901126102a0576024356001600160a01b03811681036102a057611bc0613921565b6064356001600160401b0381116102a057611bdf903690600401613a76565b906084356001600160401b0381116102a057611bff903690600401613a76565b60c4356001600160401b0381116102a057366023820112156102a057611c2f903690602481600401359101613b7c565b60e4356001600160a01b03811690036102a057611c4a6149a6565b6001600160a01b038781167f0000000000000000000000000000000000000000000000000000000000000000909116146122b25784156122785781850361223b5783356121f6576001851161217e575b60105460005b81811061216b575050611cb7600435601554613cc4565b611cc2811515613cd1565b601555601254600160401b81101561205c57611ce7816001611d0d9301601255613937565b815491926001600160a01b0360039290921b82811b8019909416928c16901b9092161790565b9055601354600160401b81101561205c57611d31816001611d5793016013556139a5565b815491926001600160a01b0360039290921b82811b8019909416928b16901b9092161790565b9055600e54600160401b81101561205c57611d7b816001611da49301600e556139dc565b815491926001600160a01b0360039290921b82811b801990941660e435909316901b9092161790565b905560405190611db382613ac1565b60a43582526020820160008152604083014281526060840191600435835260808501938452601054600160401b81101561205c57806001611df79201601055613bb3565b9590956120d457518555516001850155516002840155516003830155518051906001600160401b03821161205c57611e3f82611e366004860154613bee565b60048601613d34565b602090601f83116001146120f5579180600492611ec4979695946000926120ea575b50508160011b916000199060031b1c1916179101555b611ebb611e8382613d79565b94611e916040519687613b40565b828652601f19611ea084613d79565b0136602088013760405196611eb488613aa6565b3691613d90565b85523691613d90565b60208301526040820152601154600160401b81101561205c57806001611eed9201601155613c28565b6120d45781518051906001600160401b03821161205c57600160401b821161205c5760209083548385558084106120b7575b500182600052602060002060005b8381106120a3575050505060208201518051906001600160401b03821161205c57600160401b821161205c57602060018401918254848455808510612086575b500190600052602060002060005b8381106120725750505050600260409101910151908151916001600160401b03831161205c57600160401b831161205c57602090825484845580851061203f575b500190600052602060002060005b83811061202b5785856012546000198101908111611a0d576040805160043581526001600160a01b0360e4358116602083015293841694909316927f916c1141fd0c2a70bb95c6e9f2376006b00f90a78c0db17abbf423c61db950df9190a4005b600190602084519401938184015501611fca565b612056908460005285846000209182019101613d1d565b86611fbc565b634e487b7160e01b600052604160045260246000fd5b600190602084519401938184015501611f7b565b61209d908460005285846000209182019101613d1d565b88611f6d565b600190602084519401938184015501611f2d565b6120ce908560005284846000209182019101613d1d565b87611f1f565b634e487b7160e01b600052600060045260246000fd5b015190508b80611e61565b906004840160005260206000209160005b601f1985168110612153575092600492600192611ec49897969583601f1981161061213a575b505050811b01910155611e77565b015160001960f88460031b161c191690558b808061212c565b91926020600181928685015181550194019201612106565b80612177600192613f85565b5001611ca0565b600160005b868210612191575050611c9a565b61219c828888613cb4565b3511156121b95760016121b0828888613cb4565b35910190612183565b60405162461bcd60e51b8152602060048201526015602482015274756e736f72746564206c6576656c7320617272617960581b6044820152606490fd5b60405162461bcd60e51b815260206004820152601860248201527f72657175697265644d617475726974795b305d20213d203000000000000000006044820152606490fd5b60405162461bcd60e51b81526020600482015260156024820152740c2e4e4c2f240d8cadccee8d040dad2e6dac2e8c6d605b1b6044820152606490fd5b60405162461bcd60e51b8152602060048201526012602482015271656d707479206c6576656c7320617272617960701b6044820152606490fd5b60405162461bcd60e51b815260206004820152601f60248201527f63616e6e6f74206164642072657761726420746f6b656e20617320706f6f6c006044820152606490fd5b346102a05760203660031901126102a057600435612313614d29565b61231c81614f89565b6001600160a01b03818116913383036124045760207f6aaee64d11e8979fa392cd6388058c820f43709933f6a297e6e1005dddca62d69185600052601482526123f660406000209485549283916123a161238d60048a015499600260056123828d613c28565b509201549101613a13565b819291549061049387838360031b1c613e28565b90556123ac8a61512d565b89600052601486526123e0604060002060056000918281558260018201558260028201558260038201558260048201550155565b6123e988613937565b90549060031b1c16614d7f565b604051908152a46001600c55005b60405162461bcd60e51b815260206004820152601c60248201527f796f7520646f206e6f74206f776e207468697320706f736974696f6e000000006044820152606490fd5b346102a05760203660031901126102a057612462614d29565b61246d600435613f85565b506001600c55005b346102a05760203660031901126102a0576004356008548110156124ac5761249e60209161396e565b90546040519160031b1c8152f35b60405162461bcd60e51b815260206004820152602c60248201527f455243373231456e756d657261626c653a20676c6f62616c20696e646578206f60448201526b7574206f6620626f756e647360a01b6064820152608490fd5b346102a05761251436613a60565b61251c614d29565b612527821515614392565b61253081614765565b806000526020916014835260406000209260048401549061255082613f85565b8554956000916125608689613e28565b908183556005830154986125738961460f565b99878b8a8382146128855750926125ee856125d6856001610479878c6104a96125c361260f9d6104f09f9d6125b66104806104f09f928f93610479600291613c28565b9055600261047986613c28565b6104938294925492838360031b1c613cc4565b97909364e8d4a51000988995549060031b1c90613e15565b04946105166126036001890197885490613e28565b9d60016104798d613c28565b0490558615612720579561262d600283949596979801918254613cc4565b90555b61058057508290612640836139a5565b90546001600160a01b03939160031b1c8316806126a7575b50612697907f191a58d19a6a9b76e2e91bdc04ecbe7553dc094a5ad7af78175a0d9f884e264a9361268886613937565b90549060031b1c163390614d7f565b6040519384523393a46001600c55005b8091503b156102a057600080916044604051809481936305f7936f60e51b83528b60048401528a60248401525af18015610b3f577f191a58d19a6a9b76e2e91bdc04ecbe7553dc094a5ad7af78175a0d9f884e264a93612697928792612711575b50935090612658565b61271a90613af7565b88612708565b81612733575b5080919293949550612630565b6002612743910196875490613cc4565b6040516370a0823160e01b8152306004820152966001600160a01b03907f000000000000000000000000000000000000000000000000000000000000000090858a6024818686165afa80156106f25785969798999a8691612854575b508481111561284957506127b38480613e28565b9055826127c8575b5050869594939250612726565b826127d4913390614d7f565b6127dd866139a5565b90549060031b1c1690816127f2575b806127bb565b908092503b156106b2578291604483926040519485938492634a29330d60e01b84528c600485015260248401525af180156106a757908291612835575b806127ec565b61283e90613af7565b6106a457808661282f565b6127b3908095613e28565b809650888092503d831161287e575b61286d8183613b40565b810103126102a0578594518b61279f565b503d612863565b97505061260f926125ee856125d66104f0979560016104796104f09760009e6104a961048086600261047986613c28565b346102a05760203660031901126102a057600435806000526014602052604060002054612945576128e681613e55565b61290057806128fb610efa61075993336150bf565b61512d565b60405162461bcd60e51b815260206004820152601860248201527f636f6e7461696e732070656e64696e67207265776172647300000000000000006044820152606490fd5b60405162461bcd60e51b815260206004820152601060248201526f18dbdb9d185a5b9cc819195c1bdcda5d60821b6044820152606490fd5b346102a057610759610f0f61299136613a2b565b906040519261299f84613b0a565b60008452610eff610efa84336150bf565b346102a05760403660031901126102a0576129c961390b565b336001600160a01b038216036129e55761075990600435614c9f565b60405162461bcd60e51b815260206004820152602f60248201527f416363657373436f6e74726f6c3a2063616e206f6e6c792072656e6f756e636560448201526e103937b632b9903337b91039b2b63360891b6064820152608490fd5b346102a057612a5036613a60565b90612a59614d29565b612a64811515614392565b612a6d82614765565b816000526020906014825260406000209160048301548093612a8e82613f85565b90805490600091612a9f8782613e28565b93848355600583015494612ab28b61460f565b9287878514612dbe578261051683612b1087612af88d60018e9f89612b2c9c8f6104f09f9d6104a9916125c3916104f09f6104806104799860026104796125b694613c28565b99909364e8d4a510009a8b95549060031b1c90613e15565b04966001610479612b26828c019a8b5490613e28565b9d613c28565b0490558180612db5575b15612c5957600201612b49848254613cc4565b90555b610580575084612b5b856139a5565b90546001600160a01b03959160031b1c851680612bdd575b50612ba3817f4ec2d4038813a7f233af1d6d09519189db3ed5bc5b823bf72f6d3144574721de9661268889613937565b604051908152857f191a58d19a6a9b76e2e91bdc04ecbe7553dc094a5ad7af78175a0d9f884e264a853393a4604051908152a36001600c55005b809592503b156102a057600080956044604051809881936305f7936f60e51b83528c60048401528660248401525af1948515610b3f57818893612ba3927f4ec2d4038813a7f233af1d6d09519189db3ed5bc5b823bf72f6d3144574721de98612c4a575b50965050612b73565b612c5390613af7565b8a612c41565b6002915001612c69815484613cc4565b6040516370a0823160e01b815230600482015290916001600160a01b03917f0000000000000000000000000000000000000000000000000000000000000000919087816024818787165afa908115612daa57908695949392918691612d79575b5084811115612d6e5750612cdd8480613e28565b905582612ced575b505050612b4c565b82612cf9913390614d7f565b612d02886139a5565b90549060031b1c169081612d17575b80612ce5565b908092503b156106b2578291604483926040519485938492634a29330d60e01b84528d600485015260248401525af180156106a757908291612d5a575b80612d11565b612d6390613af7565b6106a4578087612d54565b612cdd908095613e28565b809650898092503d8311612da3575b612d928183613b40565b810103126102a0578594518c612cc9565b503d612d88565b6040513d88823e3d90fd5b50831515612b36565b5091809195506000968796898c83612dd583613c28565b5060020190612de391613a13565b8192915491828260031b1c90612df891613e28565b90612e12929060031b600019811b9283911b169119161790565b90556104f095612b10612b2c96612af86104f096600161047961051697613c28565b346102a05760403660031901126102a057612e4d6138f5565b60243590612e5a81614ec6565b821015612e8d5760018060a01b031660005260066020526040600020906000526020526020604060002054604051908152f35b60405162461bcd60e51b815260206004820152602b60248201527f455243373231456e756d657261626c653a206f776e657220696e646578206f7560448201526a74206f6620626f756e647360a81b6064820152608490fd5b346102a0576020806003193601126102a05760606080604051612f0881613ac1565b60008152600084820152600060408201526000838201520152612f2c600435613bb3565b50604051612f3981613ac1565b81548152600191828101549084830191825260028101546040840190815260046003830154926060860193845201926040519387600097825492612f7c84613bee565b8089529382811690811561301d5750600114612fdf575b50505050612fa784610ac396970385613b40565b6080860193845260405196879681885251908701525160408601525160608501525160808401525160a08084015260c08301906138d0565b600090815282812092995092915b82841061300a57505050840190950194612fa787610ac386612f93565b80548885018b0152928901928101612fed565b60ff1916848a015250505090151560051b8501019550612fa787610ac386612f93565b346102a05760403660031901126102a057610759600435600b61306161390b565b9180600052602090600a825261307e600160406000200154614b94565b6000818152600a835260408082206001600160a01b0390961680835295845290205460ff16156130b7575b6000525260406000206158e1565b80600052600a825260406000208460005282526040600020600160ff198254161790553384827f2f8788117e7eff1d82e926ec794901d17c78024a50270940304540a733656f0d6000604051a46130a9565b346102a05760203660031901126102a057600435600052600a6020526020600160406000200154604051908152f35b346102a05761075961314936613a2b565b91613157610efa84336150bf565b615301565b346102a05760203660031901126102a057600435600e548110156102a057600e6000527fbb7b4a454dc3493923482f07822329ed19e8244eff582cc204f8554c3620c3fd01546040516001600160a01b039091168152602090f35b346102a05760003660031901126102a0576020600854604051908152f35b346102a05760003660031901126102a0576020601554604051908152f35b346102a0576020806003193601126102a05760043590613211614d29565b816000526014815260406000209160048301549261322e84613f85565b938154926000946005840154946132448361460f565b95808714613470576132df88996132a08361327e61326a6104f09660026104798d613c28565b81929154906104938a838360031b1c613e28565b90556132926104b08c60026104798d613c28565b90555b60016104798a613c28565b93906132be836104f064e8d4a51000978894549060031b1c89613e15565b04946105166132d360018c0197885490613e28565b9b60016104798c613c28565b04905585851561330a575050505060026132fc9101918254613cc4565b90555b610580576001600c55005b94919390929461331f575b50505050506132ff565b600261332f910191825490613cc4565b6040516370a0823160e01b815230600482015290946001600160a01b03937f000000000000000000000000000000000000000000000000000000000000000093919281816024818989165afa918215613465578992613434575b505086811115613429575061339e8680613e28565b90558415613315576133b5856133ba933390614d7f565b6139a5565b90549060031b1c1691826133d0575b8080613315565b823b156134245760448492836040519586948593634a29330d60e01b8552600485015260248401525af19081156106a757829161340e575b806133c9565b61341790613af7565b613422578083613408565bfd5b505050fd5b61339e908097613e28565b8199508092503d831161345e575b61344c8183613b40565b810103126102a0578796518980613389565b503d613442565b6040513d8b823e3d90fd5b96506104f06132df6132a09960009a8b9a613295565b346102a05760403660031901126102a05761349f6138f5565b6001600160a01b039060243582806134b683614f89565b169216918083146135b657803314908115613591575b501561352657600081815260046020526040812080546001600160a01b03191684179055926134fa82614f89565b1691604051927f8c5be1e5ebec7d5bd14f71427d1e84f3dd0314c0f7b2291e5b200ac8c7c3b9258585a4f35b60405162461bcd60e51b815260206004820152603d60248201527f4552433732313a20617070726f76652063616c6c6572206973206e6f7420746f60448201527f6b656e206f776e6572206f7220617070726f76656420666f7220616c6c0000006064820152608490fd5b9050600052600560205260406000203360005260205260ff60406000205416846134cc565b60405162461bcd60e51b815260206004820152602160248201527f4552433732313a20617070726f76616c20746f2063757272656e74206f776e656044820152603960f91b6064820152608490fd5b346102a05760003660031901126102a0576020601054604051908152f35b346102a05760203660031901126102a0576020611b19600435614fac565b346102a05760003660031901126102a0576040516000805461366281613bee565b808452906001908181169081156112a8575060011461368b57610ac38461123b81860382613b40565b600080805292507f290decd9548b62a8d60345a988386fc84ba6bc95484008f6362f93160ef3e5635b8284106136cc57505050810160200161123b8261122b565b805460208587018101919091529093019281016136b4565b346102a05760203660031901126102a05760606040805161370481613aa6565b828152826020820152015261377f61371d600435613c28565b50610ac36040519161372e83613aa6565b61373781613c63565b8352613758600261374a60018401613c63565b926020860193845201613c63565b90604084019182526137956040519586956020875251606060208801526080870190613879565b915191601f199283878303016040880152613879565b915190848303016060850152613879565b346102a05760203660031901126102a0576004359063ffffffff60e01b82168092036102a0576020916331f7813160e01b81149081156137e8575b5015158152f35b635a05180f60e01b811491508115613802575b50836137e1565b637965db0b60e01b81149150811561381c575b50836137fb565b63780e9d6360e01b811491508115613836575b5083613815565b6380ac58cd60e01b811491508115613868575b8115613857575b508361382f565b6301ffc9a760e01b14905083613850565b635b5e139f60e01b81149150613849565b90815180825260208080930193019160005b828110613899575050505090565b83518552938101939281019260010161388b565b60005b8381106138c05750506000910152565b81810151838201526020016138b0565b906020916138e9815180928185528580860191016138ad565b601f01601f1916010190565b600435906001600160a01b03821682036102a057565b602435906001600160a01b03821682036102a057565b604435906001600160a01b03821682036102a057565b601254811015611a235760126000527fbb8a6a4669ba250d26cd7a459eca9d215f8307e33aebe50379bc5a3617ec34440190600090565b600854811015611a235760086000527ff3f7a9fe364faab93b216da50a3214154f22a0a2b415b23a84c8169e8b636ee30190600090565b601354811015611a235760136000527f66de8ffda797e3de9c05e8fc57b3bf0ec28a930d40b0d285d93c06501cf6a0900190600090565b600e54811015611a2357600e6000527fbb7b4a454dc3493923482f07822329ed19e8244eff582cc204f8554c3620c3fd0190600090565b8054821015611a235760005260206000200190600090565b60609060031901126102a0576001600160a01b039060043582811681036102a0579160243590811681036102a0579060443590565b60409060031901126102a0576004359060243590565b9181601f840112156102a0578235916001600160401b0383116102a0576020808501948460051b0101116102a057565b606081019081106001600160401b0382111761205c57604052565b60a081019081106001600160401b0382111761205c57604052565b60c081019081106001600160401b0382111761205c57604052565b6001600160401b03811161205c57604052565b602081019081106001600160401b0382111761205c57604052565b608081019081106001600160401b0382111761205c57604052565b90601f801991011681019081106001600160401b0382111761205c57604052565b6001600160401b03811161205c57601f01601f191660200190565b929192613b8882613b61565b91613b966040519384613b40565b8294818452818301116102a0578281602093846000960137010152565b601054811015611a23576005906010600052027f1b6847dc741a1b0cd08d278845f9d819d87b734759afb55fe2de5cb82a9ae6720190600090565b90600182811c92168015613c1e575b6020831014613c0857565b634e487b7160e01b600052602260045260246000fd5b91607f1691613bfd565b601154811015611a23576003906011600052027f31ecc21a745e3968a04e9570e4425bc18fa8019c68028196b546d1669c200c680190600090565b9060405191828154918282526020928383019160005283600020936000905b828210613c9a57505050613c9892500383613b40565b565b855484526001958601958895509381019390910190613c82565b9190811015611a235760051b0190565b91908201809211611a0d57565b15613cd857565b60405162461bcd60e51b815260206004820152601b60248201527f746f74616c416c6c6f63506f696e742063616e6e6f74206265203000000000006044820152606490fd5b818110613d28575050565b60008155600101613d1d565b9190601f8111613d4357505050565b613c98926000526020600020906020601f840160051c83019310613d6f575b601f0160051c0190613d1d565b9091508190613d62565b6001600160401b03811161205c5760051b60200190565b9291613d9b82613d79565b91613da96040519384613b40565b829481845260208094019160051b81019283116102a057905b828210613dcf5750505050565b81358152908301908301613dc2565b64e8d4a51000908060001904821181151516611a0d570290565b670de0b6b3a7640000908060001904821181151516611a0d570290565b8060001904821181151516611a0d570290565b91908203918211611a0d57565b8115613e3f570490565b634e487b7160e01b600052601260045260246000fd5b6000526014602052613ee660406000206001613edd64e8d4a51000613ed16004850154613e8181613bb3565b50908582015491613e91826146fb565b90613ea0600282015442613e28565b80151580613f3e575b613ee9575b5050506104f090610516613ec3895492613c28565b508860058b01549101613a13565b04600284015490613cc4565b91015490613e28565b90565b613f3592613f2a613f25613f1c6104f09798956003613f13613f2f97613f0d61454f565b90613e15565b91015490613e15565b60155490613e35565b613dde565b613e35565b90613cc4565b91903880613eae565b50821515613ea9565b15613f4e57565b60405162461bcd60e51b815260206004820152600f60248201526e1a5b9d985b1a59081c1bdbdb081251608a1b6044820152606490fd5b90613f936010548310613f47565b613f9c82613bb3565b509160028301613fad815442613e28565b906001850180549583613fc2575b5050505050565b613fcb856146fb565b938461401a575b5050507fcb7325664a4a3b7c7223eefc492a97ca4fdf94d46884621e5a8fae5a04b2b9d291606091429055604051904282526020820152856040820152a23880808080613fbb565b849297613f2f7fcb7325664a4a3b7c7223eefc492a97ca4fdf94d46884621e5a8fae5a04b2b9d296613f2a613f25613f1c606099976003613f1361406099613f0d61454f565b809755918193613fd2565b801561435757600082815260146020526040808220916004830154809361409182613f85565b81549088855260146020528585206140ac6004820154613bb3565b50805442101561427257600390549101555b836140c98984613cc4565b91828555600585015492806140dd8d61460f565b80968d85838914156000146104f09960016104796141409b6104f09a6105169961412498612af89761425d57506125c36104a9918b6125b66104808a60026104798a613c28565b0496600161047961413a828c019a8b5490613e28565b9b613c28565b04905581156142565760026141589101918254613cc4565b90555b614164836139a5565b90546001600160a01b03929160031b1c8216806141f3575b50506141c79061418b84613937565b90549060031b1c168251906323b872dd60e01b6020830152336024830152306044830152856064830152606482526141c282613ac1565b614dca565b519182527f9a2a1e97e6d641080089aafc36750cfdef4c79f8b3ace6fa4c384fa2f047695960203393a4565b803b156142525781809160448651809581936303004b4760e01b83528c60048401528b60248401525af19081156142475750906141c79291614238575b81925061417c565b61424190613af7565b38614230565b8451903d90823e3d90fd5b5080fd5b505061415b565b9150506104a96125c386600261047986613c28565b508054806142b457506142ad6003670de0b6b3a7640000925b0191670de0b6b3a76400006142a68454926104f08442613e28565b0490613cc4565b90556140be565b89811015614316576142de9192939495506142d86142d182613df8565b918b613cc4565b90613e35565b670de0b6b3a764000090810390811161430257906142ad600389969594939261428b565b634e487b7160e01b86526011600452602486fd5b89818110156143415761433b816142d86142ad94614335600395613df8565b92613cc4565b9261428b565b50506142ad60036706f05b59d3b200009261428b565b60405162461bcd60e51b815260206004820152601360248201527219195c1bdcda5d1a5b99c80c08185b5bdd5b9d606a1b6044820152606490fd5b1561439957565b60405162461bcd60e51b81526020600482015260146024820152731dda5d1a191c985dda5b99c80c08185b5bdd5b9d60621b6044820152606490fd5b156143dc57565b60405162461bcd60e51b815260206004820152601860248201527f616d6f756e742065786365656473206465706f736974656400000000000000006044820152606490fd5b1561442857565b60405162461bcd60e51b815260206004820152601b60248201527f52656c696373206e6f74206f66207468652073616d6520706f6f6c00000000006044820152606490fd5b959293909491956000526014602052600560406000200154958560005261449c6005604060002001549661460f565b9485928389141580614536575b84891415908161451d575b8080614516575b156144da57505050506144d69160026104796125c393613c28565b9055565b9295509091156144f85750506144d69160026104796125c393613c28565b90935061450457505050565b6144d69160026104796125c393613c28565b50816144bb565b61452f61238d8b600261047989613c28565b90556144b4565b61454861238d8b600261047988613c28565b90556144a9565b600f546040516333cd77e760e11b81529190602090839060049082906001600160a01b03165afa918215610b3f576000926145dc575b506753444835ec580000821161459757565b60405162461bcd60e51b815260206004820152601e60248201527f6d6178696d756d20656d697373696f6e207261746520657863656564656400006044820152606490fd5b90916020823d8211614607575b816145f660209383613b40565b810103126106a45750519038614585565b3d91506145e9565b6000918183526020916014835260408085209361462f6004860154613c28565b50948554600181146146f157600382810154428110156146e757614654905b42613e28565b91600019998a82019182116146d357505b61466f818a613a13565b905490831b1c831015614683578901614665565b985050506005919293949550019185808454036146a1575050505050565b7f8bdaee675270281b7bc2d5b9ced20517ecf5ce96158973ef78072a7bc1491b44935551858152a23880808085613fbb565b634e487b7160e01b81526011600452602490fd5b506146544261464e565b5093945050505050565b90614707600092613c28565b50600281019081546000926001809301905b828510614727575050505050565b90919261475a8597613f2f61473d849886613a13565b90546147498c89613a13565b929054600393841b1c921b1c613e15565b960193929190614719565b61476f90336150bf565b1561477657565b60405162461bcd60e51b81526020600482015260156024820152741b9bdd081bdddb995c881bdc88185c1c1c9bdd9959605a1b6044820152606490fd5b6000198114611a0d5760010190565b906147ce600d546147b3565b9182600d55826040918251926147e384613b0a565b60008085526001600160a01b038316918215614963576000858152600260205260409020546001600160a01b031661492057600854858352602090600982528083852055600160401b81101561490c576148606148478260018a940160085561396e565b819391549060031b600019811b9283911b169119161790565b905561486b85614ec6565b8484526006825282842081855282528683852055868452600782528284205583835260038152818320805490600182018092116148f85784889693946002610f0f9a96613c989c9a98957fddf252ad1be2c89b69c2b068fc378daa952ba7f163c4a11628f55a4df523b3ef955587845252808220856001600160601b0360a01b82541617905551a46155b6565b634e487b7160e01b85526011600452602485fd5b634e487b7160e01b84526041600452602484fd5b5162461bcd60e51b815260206004820152601c60248201527f4552433732313a20746f6b656e20616c7265616479206d696e746564000000006044820152606490fd5b5162461bcd60e51b815260206004820181905260248201527f4552433732313a206d696e7420746f20746865207a65726f20616464726573736044820152606490fd5b3360009081527fcc154f7b876a360d54d1dd91709acfea951faf52857cd1bb669415168b037aed602090815260408083205490927f523a704056dcd17bcf83bed8b68c59416dac1119be77755efe3bde0a64e46e0c9160ff1615614a0a5750505050565b614a13336157e3565b91845190614a2082613b25565b60428252848201926060368537825115614b805760308453825190600191821015614b805790607860218501536041915b818311614b1257505050614ad0576048611982938693614ab493614aa5985198899376020b1b1b2b9b9a1b7b73a3937b61d1030b1b1b7bab73a1604d1b8a860152611929815180928c6037890191016138ad565b01036028810187520185613b40565b5192839262461bcd60e51b8452600484015260248301906138d0565b60648486519062461bcd60e51b825280600483015260248201527f537472696e67733a20686578206c656e67746820696e73756666696369656e746044820152fd5b909192600f81166010811015614b6c576f181899199a1a9b1b9c1cb0b131b232b360811b901a614b4285876157d2565b5360041c928015614b5857600019019190614a51565b634e487b7160e01b82526011600452602482fd5b634e487b7160e01b83526032600452602483fd5b634e487b7160e01b81526032600452602490fd5b600090808252602090600a8252604092838120338252835260ff848220541615614bbe5750505050565b614bc7336157e3565b91845190614bd482613b25565b60428252848201926060368537825115614b805760308453825190600191821015614b805790607860218501536041915b818311614c5957505050614ad0576048611982938693614ab493614aa5985198899376020b1b1b2b9b9a1b7b73a3937b61d1030b1b1b7bab73a1604d1b8a860152611929815180928c6037890191016138ad565b909192600f81166010811015614b6c576f181899199a1a9b1b9c1cb0b131b232b360811b901a614c8985876157d2565b5360041c928015614b5857600019019190614c05565b90614cdd916000818152600a6020526040918282209360018060a01b03169384835260205260ff8383205416614ce0575b8152600b6020522061594f565b50565b808252600a60205282822084835260205282822060ff1981541690553384827ff6391f5c32d9c69d2a47ea670b442974b53935d1edc7fd64eb21e047a839171b858751a4614cd0565b6002600c5414614d3a576002600c55565b60405162461bcd60e51b815260206004820152601f60248201527f5265656e7472616e637947756172643a207265656e7472616e742063616c6c006044820152606490fd5b60405163a9059cbb60e01b60208201526001600160a01b03909216602483015260448083019390935291815260808101916001600160401b0383118284101761205c57613c98926040525b60018060a01b03169060405160408101908082106001600160401b0383111761205c57614e3b916040526020938482527f5361666545524332303a206c6f772d6c6576656c2063616c6c206661696c6564858301526000808587829751910182855af1614e35615586565b91615725565b805180614e49575b50505050565b8184918101031261425257820151908115918215036106a45750614e6f57808080614e43565b6084906040519062461bcd60e51b82526004820152602a60248201527f5361666545524332303a204552433230206f7065726174696f6e20646964206e6044820152691bdd081cdd58d8d9595960b21b6064820152fd5b6001600160a01b03168015614ee657600052600360205260406000205490565b60405162461bcd60e51b815260206004820152602960248201527f4552433732313a2061646472657373207a65726f206973206e6f7420612076616044820152683634b21037bbb732b960b91b6064820152608490fd5b15614f4457565b60405162461bcd60e51b815260206004820152601860248201527f4552433732313a20696e76616c696420746f6b656e20494400000000000000006044820152606490fd5b6000908152600260205260409020546001600160a01b0316613ee6811515614f3d565b600081815260026020526040902054614fcf906001600160a01b03161515614f3d565b6000908152600460205260409020546001600160a01b031690565b15614ff157565b60405162461bcd60e51b815260206004820152602d60248201527f4552433732313a2063616c6c6572206973206e6f7420746f6b656e206f776e6560448201526c1c881bdc88185c1c1c9bdd9959609a1b6064820152608490fd5b60809060208152603260208201527f4552433732313a207472616e7366657220746f206e6f6e20455243373231526560408201527131b2b4bb32b91034b6b83632b6b2b73a32b960711b60608201520190565b156150a657565b60405162461bcd60e51b8152806119826004820161504c565b906001600160a01b0380806150d384614f89565b16931691838314938415615106575b5083156150f0575b50505090565b6150fc91929350614fac565b16143880806150ea565b909350600052600560205260406000208260005260205260ff6040600020541692386150e2565b61513681614f89565b6001600160a01b038116908161527a575060085482600052600960205280604060002055600160401b81101561205c5761517a61484782600186940160085561396e565b90555b6008546000199190828101908111611a0d5760009284845260096020526040916151aa838620549161396e565b90549060031b1c806151be6148478461396e565b90558552600960205282852055848452838281205560085480156152665781016151e78161396e565b8382549160031b1b191690556008558484526004602052818420906001600160601b0360a01b91828154169055838552600360205282852080549182019182116143025755848452600260205281842080549091169055517fddf252ad1be2c89b69c2b068fc378daa952ba7f163c4a11628f55a4df523b3ef908390a4565b634e487b7160e01b85526031600452602485fd5b61528390614ec6565b6000198101908111611a0d5760009083825260209060078252604091828420548281036152ca575b508584528383812055848452600681528284209184525281205561517d565b85855260068252838520838652825283852054868652600683528486208287528352808587205585526007825283852055386152ab565b9061530b83614f89565b6001600160a01b03838116929181168390036155335781169283156154e2578261544c575060085484600052600960205280604060002055600160401b81101561205c5761536361484782600188940160085561396e565b90555b818303615419575b5060008381526004602052604081206001600160601b0360a01b90818154169055828252600360205260408220805490600019820191821161540557558382526003602052604082208054906001820180921161540557907fddf252ad1be2c89b69c2b068fc378daa952ba7f163c4a11628f55a4df523b3ef939291558582526002602052846040832091825416179055604051a4565b634e487b7160e01b84526011600452602484fd5b61542290614ec6565b6040600084815260066020528181208382526020528582822055858152600760205220553861536e565b83830361545a575b50615366565b61546390614ec6565b6000198101908111611a0d5760009085825260209060078252604091828420548281036154ab575b508784528383812055858452600681528284209184525281205538615454565b868552600682528385208386528252838520548786526006835284862082875283528085872055855260078252838520553861548b565b60405162461bcd60e51b8152602060048201526024808201527f4552433732313a207472616e7366657220746f20746865207a65726f206164646044820152637265737360e01b6064820152608490fd5b60405162461bcd60e51b815260206004820152602560248201527f4552433732313a207472616e736665722066726f6d20696e636f72726563742060448201526437bbb732b960d91b6064820152608490fd5b3d156155b1573d9061559782613b61565b916155a56040519384613b40565b82523d6000602084013e565b606090565b9091600091803b156156a1576156016020918493604051948580948193630a85bd0160e11b9a8b845233600485015284602485015260448401526080606484015260848301906138d0565b03926001600160a01b03165af190829082615659575b505061564b57615625615586565b805190816156465760405162461bcd60e51b8152806119826004820161504c565b602001fd5b6001600160e01b0319161490565b909192506020813d8211615699575b8161567560209383613b40565b810103126142525751906001600160e01b0319821682036106a45750903880615617565b3d9150615668565b50505050600190565b91926000929190813b1561571b576020916157009185604051958680958194630a85bd0160e11b9b8c845233600485015260018060a01b03809516602485015260448401526080606484015260848301906138d0565b0393165af19082908261565957505061564b57615625615586565b5050505050600190565b919290156157875750815115615739575090565b3b156157425790565b60405162461bcd60e51b815260206004820152601d60248201527f416464726573733a2063616c6c20746f206e6f6e2d636f6e74726163740000006044820152606490fd5b82519091501561579a5750805190602001fd5b60405162461bcd60e51b8152602060048201529081906119829060248301906138d0565b8051821015611a235760209160051b010190565b908151811015611a23570160200190565b604051906157f082613aa6565b602a8252602082016040368237825115611a2357603090538151600190811015611a2357607860218401536029905b80821161587357505061582f5790565b606460405162461bcd60e51b815260206004820152602060248201527f537472696e67733a20686578206c656e67746820696e73756666696369656e746044820152fd5b9091600f811660108110156158cc576f181899199a1a9b1b9c1cb0b131b232b360811b901a6158a284866157d2565b5360041c9180156158b757600019019061581f565b60246000634e487b7160e01b81526011600452fd5b60246000634e487b7160e01b81526032600452fd5b9190600183016000908282528060205260408220541560001461594957845494600160401b8610156159355783615925614847886001604098999a01855584613a13565b9055549382526020522055600190565b634e487b7160e01b83526041600452602483fd5b50925050565b90600182019060009281845282602052604084205490811515600014615a385760001991808301818111615a2457825490848201918211615a10578082036159db575b505050805480156159c7578201916159aa8383613a13565b909182549160031b1b191690555582526020526040812055600190565b634e487b7160e01b86526031600452602486fd5b6159fb6159eb6148479386613a13565b90549060031b1c92839286613a13565b90558652846020526040862055388080615992565b634e487b7160e01b88526011600452602488fd5b634e487b7160e01b87526011600452602487fd5b505050509056fea2646970667358221220b011719f1657b54dbe33273bfe402039288dd7af9f81e897e57ac8c79cafc90d64736f6c63430008100033",
    "linkReferences": {}
  },
  "methodIdentifiers": {
    "DEFAULT_ADMIN_ROLE()": "a217fddf",
    "addPool(uint256,address,address,uint256[],uint256[],uint256,string,address)": "53cdb753",
    "approve(address,uint256)": "095ea7b3",
    "balanceOf(address)": "70a08231",
    "burn(uint256)": "42966c68",
    "createRelicAndDeposit(address,uint256,uint256)": "6705fcf3",
    "deposit(uint256,uint256)": "e2bbb158",
    "emergencyWithdraw(uint256)": "5312ea8e",
    "emissionCurve()": "9a67759b",
    "getApproved(uint256)": "081812fc",
    "getLevelInfo(uint256)": "030101db",
    "getPoolInfo(uint256)": "2f380b35",
    "getPositionForId(uint256)": "e48dc135",
    "getRoleAdmin(bytes32)": "248a9ca3",
    "getRoleMember(bytes32,uint256)": "9010d07c",
    "getRoleMemberCount(bytes32)": "ca15c873",
    "grantRole(bytes32,address)": "2f2ff15d",
    "harvest(uint256)": "ddc63262",
    "hasRole(bytes32,address)": "91d14854",
    "isApprovedForAll(address,address)": "e985e9c5",
    "massUpdatePools(uint256[])": "57a5b58c",
    "merge(uint256,uint256)": "d1c2babb",
    "modifyPool(uint256,uint256,address,string,address,bool)": "8d74c2bf",
    "multicall(bytes[])": "ac9650d8",
    "name()": "06fdde03",
    "nftDescriptor(uint256)": "215e83eb",
    "oath()": "f484160b",
    "ownerOf(uint256)": "6352211e",
    "pendingOath(uint256)": "9c751805",
    "poolLength()": "081e3eda",
    "poolToken(uint256)": "6e7d4019",
    "renounceRole(bytes32,address)": "36568abe",
    "revokeRole(bytes32,address)": "d547741f",
    "rewarder(uint256)": "c346253d",
    "safeTransferFrom(address,address,uint256)": "42842e0e",
    "safeTransferFrom(address,address,uint256,bytes)": "b88d4fde",
    "setApprovalForAll(address,bool)": "a22cb465",
    "setEmissionCurve(address)": "6ecbae3f",
    "shift(uint256,uint256,uint256)": "b9be8cd5",
    "split(uint256,uint256,address)": "7747dd81",
    "supportsInterface(bytes4)": "01ffc9a7",
    "symbol()": "95d89b41",
    "tokenByIndex(uint256)": "4f6ccce7",
    "tokenOfOwnerByIndex(address,uint256)": "2f745c59",
    "tokenURI(uint256)": "c87b56dd",
    "totalAllocPoint()": "17caf6f1",
    "totalSupply()": "18160ddd",
    "transferFrom(address,address,uint256)": "23b872dd",
    "updatePool(uint256)": "51eb05a6",
    "updatePosition(uint256)": "09f1c80a",
    "withdraw(uint256,uint256)": "441a3e70",
    "withdrawAndHarvest(uint256,uint256)": "348b597f"
  },
  "id": 0
}