{
  "abi": [
    {
      "inputs": [
        {
          "internalType": "contract IERC20",
          "name": "_rewardToken",
          "type": "address"
        },
        {
          "internalType": "contract IEmissionCurve",
          "name": "_emissionCurve",
          "type": "address"
        }
      ],
      "stateMutability": "nonpayable",
      "type": "constructor"
    },
    {
      "anonymous": false,
      "inputs": [
        {
          "indexed": true,
          "internalType": "address",
          "name": "owner",
          "type": "address"
        },
        {
          "indexed": true,
          "internalType": "address",
          "name": "approved",
          "type": "address"
        },
        {
          "indexed": true,
          "internalType": "uint256",
          "name": "tokenId",
          "type": "uint256"
        }
      ],
      "name": "Approval",
      "type": "event"
    },
    {
      "anonymous": false,
      "inputs": [
        {
          "indexed": true,
          "internalType": "address",
          "name": "owner",
          "type": "address"
        },
        {
          "indexed": true,
          "internalType": "address",
          "name": "operator",
          "type": "address"
        },
        {
          "indexed": false,
          "internalType": "bool",
          "name": "approved",
          "type": "bool"
        }
      ],
      "name": "ApprovalForAll",
      "type": "event"
    },
    {
      "anonymous": false,
      "inputs": [
        {
          "indexed": true,
          "internalType": "uint256",
          "name": "pid",
          "type": "uint256"
        },
        {
          "indexed": true,
          "internalType": "address",
          "name": "to",
          "type": "address"
        },
        {
          "indexed": true,
          "internalType": "uint256",
          "name": "relicId",
          "type": "uint256"
        }
      ],
      "name": "CreateRelic",
      "type": "event"
    },
    {
      "anonymous": false,
      "inputs": [
        {
          "indexed": true,
          "internalType": "uint256",
          "name": "pid",
          "type": "uint256"
        },
        {
          "indexed": false,
          "internalType": "uint256",
          "name": "amount",
          "type": "uint256"
        },
        {
          "indexed": true,
          "internalType": "address",
          "name": "to",
          "type": "address"
        },
        {
          "indexed": true,
          "internalType": "uint256",
          "name": "relicId",
          "type": "uint256"
        }
      ],
      "name": "Deposit",
      "type": "event"
    },
    {
      "anonymous": false,
      "inputs": [
        {
          "indexed": true,
          "internalType": "uint256",
          "name": "pid",
          "type": "uint256"
        },
        {
          "indexed": false,
          "internalType": "uint256",
          "name": "amount",
          "type": "uint256"
        },
        {
          "indexed": true,
          "internalType": "address",
          "name": "to",
          "type": "address"
        },
        {
          "indexed": true,
          "internalType": "uint256",
          "name": "relicId",
          "type": "uint256"
        }
      ],
      "name": "EmergencyWithdraw",
      "type": "event"
    },
    {
      "anonymous": false,
      "inputs": [
        {
          "indexed": true,
          "internalType": "uint256",
          "name": "pid",
          "type": "uint256"
        },
        {
          "indexed": false,
          "internalType": "uint256",
          "name": "amount",
          "type": "uint256"
        },
        {
          "indexed": true,
          "internalType": "address",
          "name": "to",
          "type": "address"
        },
        {
          "indexed": true,
          "internalType": "uint256",
          "name": "relicId",
          "type": "uint256"
        }
      ],
      "name": "Harvest",
      "type": "event"
    },
    {
      "anonymous": false,
      "inputs": [
        {
          "indexed": true,
          "internalType": "uint256",
          "name": "relicId",
          "type": "uint256"
        },
        {
          "indexed": false,
          "internalType": "uint256",
          "name": "newLevel",
          "type": "uint256"
        }
      ],
      "name": "LevelChanged",
      "type": "event"
    },
    {
      "anonymous": false,
      "inputs": [
        {
          "indexed": true,
          "internalType": "uint256",
          "name": "pid",
          "type": "uint256"
        },
        {
          "indexed": false,
          "internalType": "uint256",
          "name": "allocPoint",
          "type": "uint256"
        },
        {
          "indexed": true,
          "internalType": "contract IERC20",
          "name": "poolToken",
          "type": "address"
        },
        {
          "indexed": true,
          "internalType": "contract IRewarder",
          "name": "rewarder",
          "type": "address"
        },
        {
          "indexed": false,
          "internalType": "contract INFTDescriptor",
          "name": "nftDescriptor",
          "type": "address"
        }
      ],
      "name": "LogPoolAddition",
      "type": "event"
    },
    {
      "anonymous": false,
      "inputs": [
        {
          "indexed": true,
          "internalType": "uint256",
          "name": "pid",
          "type": "uint256"
        },
        {
          "indexed": false,
          "internalType": "uint256",
          "name": "allocPoint",
          "type": "uint256"
        },
        {
          "indexed": true,
          "internalType": "contract IRewarder",
          "name": "rewarder",
          "type": "address"
        },
        {
          "indexed": false,
          "internalType": "contract INFTDescriptor",
          "name": "nftDescriptor",
          "type": "address"
        }
      ],
      "name": "LogPoolModified",
      "type": "event"
    },
    {
      "anonymous": false,
      "inputs": [
        {
          "indexed": true,
          "internalType": "contract IEmissionCurve",
          "name": "emissionCurveAddress",
          "type": "address"
        }
      ],
      "name": "LogSetEmissionCurve",
      "type": "event"
    },
    {
      "anonymous": false,
      "inputs": [
        {
          "indexed": true,
          "internalType": "uint256",
          "name": "pid",
          "type": "uint256"
        },
        {
          "indexed": false,
          "internalType": "uint256",
          "name": "lastRewardTime",
          "type": "uint256"
        },
        {
          "indexed": false,
          "internalType": "uint256",
          "name": "lpSupply",
          "type": "uint256"
        },
        {
          "indexed": false,
          "internalType": "uint256",
          "name": "accRewardPerShare",
          "type": "uint256"
        }
      ],
      "name": "LogUpdatePool",
      "type": "event"
    },
    {
      "anonymous": false,
      "inputs": [
        {
          "indexed": true,
          "internalType": "uint256",
          "name": "fromId",
          "type": "uint256"
        },
        {
          "indexed": true,
          "internalType": "uint256",
          "name": "toId",
          "type": "uint256"
        },
        {
          "indexed": false,
          "internalType": "uint256",
          "name": "amount",
          "type": "uint256"
        }
      ],
      "name": "Merge",
      "type": "event"
    },
    {
      "anonymous": false,
      "inputs": [
        {
          "indexed": true,
          "internalType": "bytes32",
          "name": "role",
          "type": "bytes32"
        },
        {
          "indexed": true,
          "internalType": "bytes32",
          "name": "previousAdminRole",
          "type": "bytes32"
        },
        {
          "indexed": true,
          "internalType": "bytes32",
          "name": "newAdminRole",
          "type": "bytes32"
        }
      ],
      "name": "RoleAdminChanged",
      "type": "event"
    },
    {
      "anonymous": false,
      "inputs": [
        {
          "indexed": true,
          "internalType": "bytes32",
          "name": "role",
          "type": "bytes32"
        },
        {
          "indexed": true,
          "internalType": "address",
          "name": "account",
          "type": "address"
        },
        {
          "indexed": true,
          "internalType": "address",
          "name": "sender",
          "type": "address"
        }
      ],
      "name": "RoleGranted",
      "type": "event"
    },
    {
      "anonymous": false,
      "inputs": [
        {
          "indexed": true,
          "internalType": "bytes32",
          "name": "role",
          "type": "bytes32"
        },
        {
          "indexed": true,
          "internalType": "address",
          "name": "account",
          "type": "address"
        },
        {
          "indexed": true,
          "internalType": "address",
          "name": "sender",
          "type": "address"
        }
      ],
      "name": "RoleRevoked",
      "type": "event"
    },
    {
      "anonymous": false,
      "inputs": [
        {
          "indexed": true,
          "internalType": "uint256",
          "name": "fromId",
          "type": "uint256"
        },
        {
          "indexed": true,
          "internalType": "uint256",
          "name": "toId",
          "type": "uint256"
        },
        {
          "indexed": false,
          "internalType": "uint256",
          "name": "amount",
          "type": "uint256"
        }
      ],
      "name": "Shift",
      "type": "event"
    },
    {
      "anonymous": false,
      "inputs": [
        {
          "indexed": true,
          "internalType": "uint256",
          "name": "fromId",
          "type": "uint256"
        },
        {
          "indexed": true,
          "internalType": "uint256",
          "name": "toId",
          "type": "uint256"
        },
        {
          "indexed": false,
          "internalType": "uint256",
          "name": "amount",
          "type": "uint256"
        }
      ],
      "name": "Split",
      "type": "event"
    },
    {
      "anonymous": false,
      "inputs": [
        {
          "indexed": true,
          "internalType": "address",
          "name": "from",
          "type": "address"
        },
        {
          "indexed": true,
          "internalType": "address",
          "name": "to",
          "type": "address"
        },
        {
          "indexed": true,
          "internalType": "uint256",
          "name": "tokenId",
          "type": "uint256"
        }
      ],
      "name": "Transfer",
      "type": "event"
    },
    {
      "anonymous": false,
      "inputs": [
        {
          "indexed": true,
          "internalType": "uint256",
          "name": "pid",
          "type": "uint256"
        },
        {
          "indexed": false,
          "internalType": "uint256",
          "name": "amount",
          "type": "uint256"
        },
        {
          "indexed": true,
          "internalType": "address",
          "name": "to",
          "type": "address"
        },
        {
          "indexed": true,
          "internalType": "uint256",
          "name": "relicId",
          "type": "uint256"
        }
      ],
      "name": "Withdraw",
      "type": "event"
    },
    {
      "inputs": [],
      "name": "DEFAULT_ADMIN_ROLE",
      "outputs": [
        {
          "internalType": "bytes32",
          "name": "",
          "type": "bytes32"
        }
      ],
      "stateMutability": "view",
      "type": "function"
    },
    {
      "inputs": [
        {
          "internalType": "uint256",
          "name": "allocPoint",
          "type": "uint256"
        },
        {
          "internalType": "contract IERC20",
          "name": "_poolToken",
          "type": "address"
        },
        {
          "internalType": "contract IRewarder",
          "name": "_rewarder",
          "type": "address"
        },
        {
          "internalType": "uint256[]",
          "name": "requiredMaturity",
          "type": "uint256[]"
        },
        {
          "internalType": "uint256[]",
          "name": "allocPoints",
          "type": "uint256[]"
        },
        {
          "internalType": "string",
          "name": "name",
          "type": "string"
        },
        {
          "internalType": "contract INFTDescriptor",
          "name": "_nftDescriptor",
          "type": "address"
        }
      ],
      "name": "addPool",
      "outputs": [],
      "stateMutability": "nonpayable",
      "type": "function"
    },
    {
      "inputs": [
        {
          "internalType": "address",
          "name": "to",
          "type": "address"
        },
        {
          "internalType": "uint256",
          "name": "tokenId",
          "type": "uint256"
        }
      ],
      "name": "approve",
      "outputs": [],
      "stateMutability": "nonpayable",
      "type": "function"
    },
    {
      "inputs": [
        {
          "internalType": "address",
          "name": "owner",
          "type": "address"
        }
      ],
      "name": "balanceOf",
      "outputs": [
        {
          "internalType": "uint256",
          "name": "",
          "type": "uint256"
        }
      ],
      "stateMutability": "view",
      "type": "function"
    },
    {
      "inputs": [
        {
          "internalType": "uint256",
          "name": "tokenId",
          "type": "uint256"
        }
      ],
      "name": "burn",
      "outputs": [],
      "stateMutability": "nonpayable",
      "type": "function"
    },
    {
      "inputs": [
        {
          "internalType": "address",
          "name": "to",
          "type": "address"
        },
        {
          "internalType": "uint256",
          "name": "pid",
          "type": "uint256"
        },
        {
          "internalType": "uint256",
          "name": "amount",
          "type": "uint256"
        }
      ],
      "name": "createRelicAndDeposit",
      "outputs": [
        {
          "internalType": "uint256",
          "name": "id",
          "type": "uint256"
        }
      ],
      "stateMutability": "nonpayable",
      "type": "function"
    },
    {
      "inputs": [
        {
          "internalType": "uint256",
          "name": "amount",
          "type": "uint256"
        },
        {
          "internalType": "uint256",
          "name": "relicId",
          "type": "uint256"
        }
      ],
      "name": "deposit",
      "outputs": [],
      "stateMutability": "nonpayable",
      "type": "function"
    },
    {
      "inputs": [
        {
          "internalType": "uint256",
          "name": "relicId",
          "type": "uint256"
        }
      ],
      "name": "emergencyWithdraw",
      "outputs": [],
      "stateMutability": "nonpayable",
      "type": "function"
    },
    {
      "inputs": [],
      "name": "emissionCurve",
      "outputs": [
        {
          "internalType": "contract IEmissionCurve",
          "name": "",
          "type": "address"
        }
      ],
      "stateMutability": "view",
      "type": "function"
    },
    {
      "inputs": [
        {
          "internalType": "uint256",
          "name": "tokenId",
          "type": "uint256"
        }
      ],
      "name": "getApproved",
      "outputs": [
        {
          "internalType": "address",
          "name": "",
          "type": "address"
        }
      ],
      "stateMutability": "view",
      "type": "function"
    },
    {
      "inputs": [
        {
          "internalType": "uint256",
          "name": "pid",
          "type": "uint256"
        }
      ],
      "name": "getLevelInfo",
      "outputs": [
        {
          "components": [
            {
              "internalType": "uint256[]",
              "name": "requiredMaturity",
              "type": "uint256[]"
            },
            {
              "internalType": "uint256[]",
              "name": "allocPoint",
              "type": "uint256[]"
            },
            {
              "internalType": "uint256[]",
              "name": "balance",
              "type": "uint256[]"
            }
          ],
          "internalType": "struct LevelInfo",
          "name": "levelInfo",
          "type": "tuple"
        }
      ],
      "stateMutability": "view",
      "type": "function"
    },
    {
      "inputs": [
        {
          "internalType": "uint256",
          "name": "pid",
          "type": "uint256"
        }
      ],
      "name": "getPoolInfo",
      "outputs": [
        {
          "components": [
            {
              "internalType": "uint256",
              "name": "accRewardPerShare",
              "type": "uint256"
            },
            {
              "internalType": "uint256",
              "name": "lastRewardTime",
              "type": "uint256"
            },
            {
              "internalType": "uint256",
              "name": "allocPoint",
              "type": "uint256"
            },
            {
              "internalType": "string",
              "name": "name",
              "type": "string"
            }
          ],
          "internalType": "struct PoolInfo",
          "name": "pool",
          "type": "tuple"
        }
      ],
      "stateMutability": "view",
      "type": "function"
    },
    {
      "inputs": [
        {
          "internalType": "uint256",
          "name": "relicId",
          "type": "uint256"
        }
      ],
      "name": "getPositionForId",
      "outputs": [
        {
          "components": [
            {
              "internalType": "uint256",
              "name": "amount",
              "type": "uint256"
            },
            {
              "internalType": "uint256",
              "name": "rewardDebt",
              "type": "uint256"
            },
            {
              "internalType": "uint256",
              "name": "rewardCredit",
              "type": "uint256"
            },
            {
              "internalType": "uint256",
              "name": "entry",
              "type": "uint256"
            },
            {
              "internalType": "uint256",
              "name": "poolId",
              "type": "uint256"
            },
            {
              "internalType": "uint256",
              "name": "level",
              "type": "uint256"
            }
          ],
          "internalType": "struct PositionInfo",
          "name": "position",
          "type": "tuple"
        }
      ],
      "stateMutability": "view",
      "type": "function"
    },
    {
      "inputs": [
        {
          "internalType": "bytes32",
          "name": "role",
          "type": "bytes32"
        }
      ],
      "name": "getRoleAdmin",
      "outputs": [
        {
          "internalType": "bytes32",
          "name": "",
          "type": "bytes32"
        }
      ],
      "stateMutability": "view",
      "type": "function"
    },
    {
      "inputs": [
        {
          "internalType": "bytes32",
          "name": "role",
          "type": "bytes32"
        },
        {
          "internalType": "uint256",
          "name": "index",
          "type": "uint256"
        }
      ],
      "name": "getRoleMember",
      "outputs": [
        {
          "internalType": "address",
          "name": "",
          "type": "address"
        }
      ],
      "stateMutability": "view",
      "type": "function"
    },
    {
      "inputs": [
        {
          "internalType": "bytes32",
          "name": "role",
          "type": "bytes32"
        }
      ],
      "name": "getRoleMemberCount",
      "outputs": [
        {
          "internalType": "uint256",
          "name": "",
          "type": "uint256"
        }
      ],
      "stateMutability": "view",
      "type": "function"
    },
    {
      "inputs": [
        {
          "internalType": "bytes32",
          "name": "role",
          "type": "bytes32"
        },
        {
          "internalType": "address",
          "name": "account",
          "type": "address"
        }
      ],
      "name": "grantRole",
      "outputs": [],
      "stateMutability": "nonpayable",
      "type": "function"
    },
    {
      "inputs": [
        {
          "internalType": "uint256",
          "name": "relicId",
          "type": "uint256"
        }
      ],
      "name": "harvest",
      "outputs": [],
      "stateMutability": "nonpayable",
      "type": "function"
    },
    {
      "inputs": [
        {
          "internalType": "bytes32",
          "name": "role",
          "type": "bytes32"
        },
        {
          "internalType": "address",
          "name": "account",
          "type": "address"
        }
      ],
      "name": "hasRole",
      "outputs": [
        {
          "internalType": "bool",
          "name": "",
          "type": "bool"
        }
      ],
      "stateMutability": "view",
      "type": "function"
    },
    {
      "inputs": [
        {
          "internalType": "address",
          "name": "owner",
          "type": "address"
        },
        {
          "internalType": "address",
          "name": "operator",
          "type": "address"
        }
      ],
      "name": "isApprovedForAll",
      "outputs": [
        {
          "internalType": "bool",
          "name": "",
          "type": "bool"
        }
      ],
      "stateMutability": "view",
      "type": "function"
    },
    {
      "inputs": [
        {
          "internalType": "uint256",
          "name": "relicId",
          "type": "uint256"
        }
      ],
      "name": "levelOnUpdate",
      "outputs": [
        {
          "internalType": "uint256",
          "name": "level",
          "type": "uint256"
        }
      ],
      "stateMutability": "view",
      "type": "function"
    },
    {
      "inputs": [
        {
          "internalType": "uint256[]",
          "name": "pids",
          "type": "uint256[]"
        }
      ],
      "name": "massUpdatePools",
      "outputs": [],
      "stateMutability": "nonpayable",
      "type": "function"
    },
    {
      "inputs": [
        {
          "internalType": "uint256",
          "name": "fromId",
          "type": "uint256"
        },
        {
          "internalType": "uint256",
          "name": "toId",
          "type": "uint256"
        }
      ],
      "name": "merge",
      "outputs": [],
      "stateMutability": "nonpayable",
      "type": "function"
    },
    {
      "inputs": [
        {
          "internalType": "uint256",
          "name": "pid",
          "type": "uint256"
        },
        {
          "internalType": "uint256",
          "name": "allocPoint",
          "type": "uint256"
        },
        {
          "internalType": "contract IRewarder",
          "name": "_rewarder",
          "type": "address"
        },
        {
          "internalType": "string",
          "name": "name",
          "type": "string"
        },
        {
          "internalType": "contract INFTDescriptor",
          "name": "_nftDescriptor",
          "type": "address"
        },
        {
          "internalType": "bool",
          "name": "overwriteRewarder",
          "type": "bool"
        }
      ],
      "name": "modifyPool",
      "outputs": [],
      "stateMutability": "nonpayable",
      "type": "function"
    },
    {
      "inputs": [
        {
          "internalType": "bytes[]",
          "name": "data",
          "type": "bytes[]"
        }
      ],
      "name": "multicall",
      "outputs": [
        {
          "internalType": "bytes[]",
          "name": "results",
          "type": "bytes[]"
        }
      ],
      "stateMutability": "nonpayable",
      "type": "function"
    },
    {
      "inputs": [],
      "name": "name",
      "outputs": [
        {
          "internalType": "string",
          "name": "",
          "type": "string"
        }
      ],
      "stateMutability": "view",
      "type": "function"
    },
    {
      "inputs": [
        {
          "internalType": "uint256",
          "name": "",
          "type": "uint256"
        }
      ],
      "name": "nftDescriptor",
      "outputs": [
        {
          "internalType": "contract INFTDescriptor",
          "name": "",
          "type": "address"
        }
      ],
      "stateMutability": "view",
      "type": "function"
    },
    {
      "inputs": [
        {
          "internalType": "uint256",
          "name": "tokenId",
          "type": "uint256"
        }
      ],
      "name": "ownerOf",
      "outputs": [
        {
          "internalType": "address",
          "name": "",
          "type": "address"
        }
      ],
      "stateMutability": "view",
      "type": "function"
    },
    {
      "inputs": [
        {
          "internalType": "uint256",
          "name": "relicId",
          "type": "uint256"
        }
      ],
      "name": "pendingReward",
      "outputs": [
        {
          "internalType": "uint256",
          "name": "pending",
          "type": "uint256"
        }
      ],
      "stateMutability": "view",
      "type": "function"
    },
    {
      "inputs": [],
      "name": "poolLength",
      "outputs": [
        {
          "internalType": "uint256",
          "name": "pools",
          "type": "uint256"
        }
      ],
      "stateMutability": "view",
      "type": "function"
    },
    {
      "inputs": [
        {
          "internalType": "uint256",
          "name": "",
          "type": "uint256"
        }
      ],
      "name": "poolToken",
      "outputs": [
        {
          "internalType": "contract IERC20",
          "name": "",
          "type": "address"
        }
      ],
      "stateMutability": "view",
      "type": "function"
    },
    {
      "inputs": [
        {
          "internalType": "bytes32",
          "name": "role",
          "type": "bytes32"
        },
        {
          "internalType": "address",
          "name": "account",
          "type": "address"
        }
      ],
      "name": "renounceRole",
      "outputs": [],
      "stateMutability": "nonpayable",
      "type": "function"
    },
    {
      "inputs": [
        {
          "internalType": "bytes32",
          "name": "role",
          "type": "bytes32"
        },
        {
          "internalType": "address",
          "name": "account",
          "type": "address"
        }
      ],
      "name": "revokeRole",
      "outputs": [],
      "stateMutability": "nonpayable",
      "type": "function"
    },
    {
      "inputs": [],
      "name": "rewardToken",
      "outputs": [
        {
          "internalType": "contract IERC20",
          "name": "",
          "type": "address"
        }
      ],
      "stateMutability": "view",
      "type": "function"
    },
    {
      "inputs": [
        {
          "internalType": "uint256",
          "name": "",
          "type": "uint256"
        }
      ],
      "name": "rewarder",
      "outputs": [
        {
          "internalType": "contract IRewarder",
          "name": "",
          "type": "address"
        }
      ],
      "stateMutability": "view",
      "type": "function"
    },
    {
      "inputs": [
        {
          "internalType": "address",
          "name": "from",
          "type": "address"
        },
        {
          "internalType": "address",
          "name": "to",
          "type": "address"
        },
        {
          "internalType": "uint256",
          "name": "tokenId",
          "type": "uint256"
        }
      ],
      "name": "safeTransferFrom",
      "outputs": [],
      "stateMutability": "nonpayable",
      "type": "function"
    },
    {
      "inputs": [
        {
          "internalType": "address",
          "name": "from",
          "type": "address"
        },
        {
          "internalType": "address",
          "name": "to",
          "type": "address"
        },
        {
          "internalType": "uint256",
          "name": "tokenId",
          "type": "uint256"
        },
        {
          "internalType": "bytes",
          "name": "data",
          "type": "bytes"
        }
      ],
      "name": "safeTransferFrom",
      "outputs": [],
      "stateMutability": "nonpayable",
      "type": "function"
    },
    {
      "inputs": [
        {
          "internalType": "address",
          "name": "operator",
          "type": "address"
        },
        {
          "internalType": "bool",
          "name": "approved",
          "type": "bool"
        }
      ],
      "name": "setApprovalForAll",
      "outputs": [],
      "stateMutability": "nonpayable",
      "type": "function"
    },
    {
      "inputs": [
        {
          "internalType": "contract IEmissionCurve",
          "name": "_emissionCurve",
          "type": "address"
        }
      ],
      "name": "setEmissionCurve",
      "outputs": [],
      "stateMutability": "nonpayable",
      "type": "function"
    },
    {
      "inputs": [
        {
          "internalType": "uint256",
          "name": "fromId",
          "type": "uint256"
        },
        {
          "internalType": "uint256",
          "name": "toId",
          "type": "uint256"
        },
        {
          "internalType": "uint256",
          "name": "amount",
          "type": "uint256"
        }
      ],
      "name": "shift",
      "outputs": [],
      "stateMutability": "nonpayable",
      "type": "function"
    },
    {
      "inputs": [
        {
          "internalType": "uint256",
          "name": "fromId",
          "type": "uint256"
        },
        {
          "internalType": "uint256",
          "name": "amount",
          "type": "uint256"
        },
        {
          "internalType": "address",
          "name": "to",
          "type": "address"
        }
      ],
      "name": "split",
      "outputs": [
        {
          "internalType": "uint256",
          "name": "newId",
          "type": "uint256"
        }
      ],
      "stateMutability": "nonpayable",
      "type": "function"
    },
    {
      "inputs": [
        {
          "internalType": "bytes4",
          "name": "interfaceId",
          "type": "bytes4"
        }
      ],
      "name": "supportsInterface",
      "outputs": [
        {
          "internalType": "bool",
          "name": "",
          "type": "bool"
        }
      ],
      "stateMutability": "view",
      "type": "function"
    },
    {
      "inputs": [],
      "name": "symbol",
      "outputs": [
        {
          "internalType": "string",
          "name": "",
          "type": "string"
        }
      ],
      "stateMutability": "view",
      "type": "function"
    },
    {
      "inputs": [
        {
          "internalType": "uint256",
          "name": "index",
          "type": "uint256"
        }
      ],
      "name": "tokenByIndex",
      "outputs": [
        {
          "internalType": "uint256",
          "name": "",
          "type": "uint256"
        }
      ],
      "stateMutability": "view",
      "type": "function"
    },
    {
      "inputs": [
        {
          "internalType": "address",
          "name": "owner",
          "type": "address"
        },
        {
          "internalType": "uint256",
          "name": "index",
          "type": "uint256"
        }
      ],
      "name": "tokenOfOwnerByIndex",
      "outputs": [
        {
          "internalType": "uint256",
          "name": "",
          "type": "uint256"
        }
      ],
      "stateMutability": "view",
      "type": "function"
    },
    {
      "inputs": [
        {
          "internalType": "uint256",
          "name": "tokenId",
          "type": "uint256"
        }
      ],
      "name": "tokenURI",
      "outputs": [
        {
          "internalType": "string",
          "name": "",
          "type": "string"
        }
      ],
      "stateMutability": "view",
      "type": "function"
    },
    {
      "inputs": [],
      "name": "totalAllocPoint",
      "outputs": [
        {
          "internalType": "uint256",
          "name": "",
          "type": "uint256"
        }
      ],
      "stateMutability": "view",
      "type": "function"
    },
    {
      "inputs": [],
      "name": "totalSupply",
      "outputs": [
        {
          "internalType": "uint256",
          "name": "",
          "type": "uint256"
        }
      ],
      "stateMutability": "view",
      "type": "function"
    },
    {
      "inputs": [
        {
          "internalType": "address",
          "name": "from",
          "type": "address"
        },
        {
          "internalType": "address",
          "name": "to",
          "type": "address"
        },
        {
          "internalType": "uint256",
          "name": "tokenId",
          "type": "uint256"
        }
      ],
      "name": "transferFrom",
      "outputs": [],
      "stateMutability": "nonpayable",
      "type": "function"
    },
    {
      "inputs": [
        {
          "internalType": "uint256",
          "name": "pid",
          "type": "uint256"
        }
      ],
      "name": "updatePool",
      "outputs": [],
      "stateMutability": "nonpayable",
      "type": "function"
    },
    {
      "inputs": [
        {
          "internalType": "uint256",
          "name": "relicId",
          "type": "uint256"
        }
      ],
      "name": "updatePosition",
      "outputs": [],
      "stateMutability": "nonpayable",
      "type": "function"
    },
    {
      "inputs": [
        {
          "internalType": "uint256",
          "name": "amount",
          "type": "uint256"
        },
        {
          "internalType": "uint256",
          "name": "relicId",
          "type": "uint256"
        }
      ],
      "name": "withdraw",
      "outputs": [],
      "stateMutability": "nonpayable",
      "type": "function"
    },
    {
      "inputs": [
        {
          "internalType": "uint256",
          "name": "amount",
          "type": "uint256"
        },
        {
          "internalType": "uint256",
          "name": "relicId",
          "type": "uint256"
        }
      ],
      "name": "withdrawAndHarvest",
      "outputs": [],
      "stateMutability": "nonpayable",
      "type": "function"
    }
  ],
  "bytecode": {
    "object": "0x60a0346200042a57601f9062005fd790601f19906001600160401b03388490038581018416830190828211848310176200041457808491604097889485528339810103126200042a5781516001600160a01b039081811681036200042a576020809401519182168092036200042a57620000786200042f565b92601184527014995b1a5c5d585c9e4811195c1bdcda5d607a1b85850152620000a06200042f565b600581526452454c494360d81b8682015284519682881162000414576000978854966001978881811c9116801562000409575b8a821014620003f55790818d849311620003a2575b5089908d831160011462000341578b9262000335575b5050600019600383901b1c191690871b1788555b8151928311620003215785548681811c9116801562000316575b8882101462000302578a8111620002ba575b50869983116001146200024c57509080620001ba9899600b9796959493899262000240575b5050600019600383901b1c191690841b1783555b82600c5560805260018060a01b0319600f541617600f55838052600a8252858420338552825260ff868520541615620001f5575b5082805252823391206200044f565b5051615afa9081620004dd823960805181818161027c015281816105cf015281816112c0015281816127df01528181612d6201526133b90152f35b838052600a825285842033855282528584209060ff198254161790553333847f2f8788117e7eff1d82e926ec794901d17c78024a50270940304540a733656f0d818951a438620001ab565b01519050388062000163565b8588528688209991908316885b818110620002a4575099869594939192600b98979383620001ba9c9d106200028a575b505050811b01835562000177565b015160001960f88460031b161c191690553880806200027c565b828401518c559a87019a92880192880162000259565b8689528789208b80860160051c8201928a8710620002f8575b0160051c019087905b828110620002ec5750506200013e565b8a8155018790620002dc565b92508192620002d3565b634e487b7160e01b89526022600452602489fd5b90607f16906200012c565b634e487b7160e01b88526041600452602488fd5b015190503880620000fe565b90848a9416918c80528b8d20928d5b8d8282106200038b575050841162000371575b505050811b01885562000112565b015160001960f88460031b161c1916905538808062000363565b8385015186558d9790950194938401930162000350565b9091508a8052898b208d80850160051c8201928c8610620003eb575b918b91869594930160051c01915b828110620003dc575050620000e8565b8d81558594508b9101620003cc565b92508192620003be565b634e487b7160e01b8b52602260045260248bfd5b90607f1690620000d3565b634e487b7160e01b600052604160045260246000fd5b600080fd5b60408051919082016001600160401b038111838210176200041457604052565b91906001830160009082825280602052604082205415600014620004d65784549468010000000000000000861015620004c25760018601808255861015620004ae57836040949596828552602085200155549382526020522055600190565b634e487b7160e01b83526032600452602483fd5b634e487b7160e01b83526041600452602483fd5b5092505056fe608080604052600436101561001357600080fd5b60003560e01c90816301ffc9a71461381057508063030101db1461374e57806306fdde03146136ab578063081812fc1461368d578063081e3eda1461366f578063095ea7b3146134f057806309f1c80a1461327f57806312f7086c1461326157806317caf6f11461324357806318160ddd14613225578063215e83eb146131ca57806323b872dd146131a6578063248a9ca3146131775780632f2ff15d146130ae5780632f380b3514612f6d5780632f745c5914612ebb578063348b597f14612abf57806336568abe14612a2d57806342842e0e146129fa57806342966c6814612933578063441a3e70146125695780634f6ccce7146124d857806351eb05a6146124ac5780635312ea8e1461235a57806357a5b58c146122f25780636352211e146122c25780636705fcf31461222a5780636e7d4019146121cf5780636ecbae3f14611f9557806370a0823114611f725780637747dd8114611dc35780638d74c2bf14611ad85780639010d07c14611a9157806391d1485414611a4457806395d89b41146119655780639a0e584a146111fd5780639a67759b146111d4578063a217fddf146111b8578063a22cb465146110e6578063a6443e1e146110c0578063ac9650d814610f21578063b88d4fde14610e9c578063b9be8cd514610bee578063c346253d14610b93578063c87b56dd14610a31578063ca15c87314610a05578063d1c2babb14610768578063d547741f14610727578063ddc63262146103fa578063e2bbb158146103cb578063e48dc13514610306578063e985e9c5146102b05763f7c618c11461026657600080fd5b346102ab5760003660031901126102ab576040517f00000000000000000000000000000000000000000000000000000000000000006001600160a01b03168152602090f35b600080fd5b346102ab5760403660031901126102ab576102c961395f565b6102d1613975565b9060018060a01b03809116600052600560205260406000209116600052602052602060ff604060002054166040519015158152f35b346102ab5760203660031901126102ab57600060a060405161032781613b46565b8281528260208201528260408201528260608201528260808201520152600435600052601460205260c0604060002060405161036281613b46565b8154918282526001810154602083019081526002820154604084019081526003830154916060850192835260a0600560048601549560808801968752015495019485526040519586525160208601525160408501525160608401525160808301525160a0820152f35b346102ab576103f36103dc36613aca565b906103e5614da8565b6103ee826147f8565b614130565b6001600c55005b346102ab576020806003193601126102ab57600435610417614da8565b610420816147f8565b8060005260148252604060002091600483015461043c8161404b565b9184549460009560058201549461045287614737565b95808714610713576104fc916104de826104a861047e61052f9560026104778d613c76565b5001613a7d565b81929154906104928a838360031b1c613e76565b919060031b600019811b9283911b169119161790565b90556104d06104bc8b60026104778d613c76565b81929154906104928a838360031b1c613d12565b90555b60016104778a613c76565b9390610501836104fc64e8d4a51000978894549060031b1c89613e63565b613e63565b04946105226105166001890197885490613e76565b9a60016104778c613c76565b90549060031b1c90613e63565b049055858061070a575b156105a15794600281929394959601610553868254613d12565b90555b61058d57507f614253edaf5943287293d855afffbb1f5f0403c51c84143aceaf27a50727b2fc906040519384523393a46001600c55005b634e487b7160e01b81526021600452602490fd5b600201946105b0865485613d12565b6040516370a0823160e01b8152306004820152966001600160a01b03907f000000000000000000000000000000000000000000000000000000000000000090858a6024818686165afa80156106ff5785969798999a86916106ce575b50848111156106c357506106208480613e76565b905582610630575b505050610556565b8261063c913390614dfe565b61064586613a0f565b90549060031b1c16908161065a575b80610628565b908092503b156106bf5782916044839260405194859384926325841fb560e01b84528c600485015260248401525af180156106b45790829161069d575b80610654565b6106a690613b61565b6106b1578086610697565b80fd5b6040513d84823e3d90fd5b8280fd5b610620908095613e76565b809650888092503d83116106f8575b6106e78183613b8f565b810103126102ab578594518b61060c565b503d6106dd565b6040513d87823e3d90fd5b50831515610539565b975061052f6104fc916104de60009a6104d3565b346102ab5760403660031901126102ab57610766600435610746613975565b9080600052600a602052610761600160406000200154614c13565b614d1e565b005b346102ab5761077636613aca565b61077e614da8565b8082146109c05761078e826147f8565b610797816147f8565b8160005260146020526040600020918254600484015493836000526040600020916107c760048401548714614547565b8254926107d48285613d12565b92831561097b5760038101546107ea9084613e63565b84600384019182546107fc9089613e63565b61080591613d12565b9061080f91613e83565b90558382556108228486858b8b8b614593565b9199909261082f8261404b565b9761083983613c76565b509060019c8d8093019061084c91613a7d565b905461085c9160031b1c89613e63565b958261086786613c76565b50019061087391613a7d565b96909164e8d4a51000978893549060031b1c61088e91613e63565b61089791613d12565b6108a1908b613e63565b0460028301546108b091613d12565b9101546108bc91613e76565b938a81019485546108cc91613e76565b928b8415156109117f285dbc28e663286c77e3cd79d1cf1525744b4dfe015f41295fe5ae2858880bdf9b60209b610917986105229761047795610963575b5050613e63565b94613c76565b0490556109238461519e565b8360005260148252610957604060002060056000918281558260018201558260028201558260038201558260048201550155565b604051908152a3600c55005b60026109729101918254613d12565b9055388061090a565b60405162461bcd60e51b815260206004820152601960248201527f63616e6e6f74206d6572676520656d7074792052656c696373000000000000006044820152606490fd5b60405162461bcd60e51b815260206004820152601760248201527f63616e6e6f74206d657267652073616d652052656c69630000000000000000006044820152606490fd5b346102ab5760203660031901126102ab57600435600052600b6020526020604060002054604051908152f35b346102ab576020806003193601126102ab576004356000818152600260205260409020549091906001600160a01b031615610b5857600082602493825260148352610a826004604084200154613a46565b9490549160405195869384926344a5a61760e11b8452600484015260018060a01b039160031b1c165afa918215610b4c57600092610ad4575b50610ad060405192828493845283019061393a565b0390f35b9091503d806000833e610ae78183613b8f565b81019082818303126102ab578051906001600160401b0382116102ab570181601f820112156102ab578051610b1b81613bb0565b92610b296040519485613b8f565b8184528482840101116102ab57610b4591848085019101613917565b9082610abb565b6040513d6000823e3d90fd5b6064906040519062461bcd60e51b8252600482015260146024820152731d1bdad95b88191bd95cc81b9bdd08195e1a5cdd60621b6044820152fd5b346102ab5760203660031901126102ab576004356013548110156102ab5760136000527f66de8ffda797e3de9c05e8fc57b3bf0ec28a930d40b0d285d93c06501cf6a09001546040516001600160a01b039091168152602090f35b346102ab5760603660031901126102ab57602435600435610c0d614da8565b60443515610e5757818114610e1257610c25816147f8565b610c2e826147f8565b80600052601460205260406000208054806044351115610c4d906144fb565b60048201549184600052601460205260406000209260048401548114610c7290614547565b8354926003830154610c849082613e63565b60038601908154610c959087613e63565b610c9e91613d12565b610ca88684613d12565b610cb191613e83565b9055610cbf60443582613e76565b80845593610ccf60443582613d12565b80875594610ce38683604435878d8d614593565b93610cf08793929361404b565b928392610cfc89613c76565b5060010190610d0a91613a7d565b9054610d1a9160031b1c84613e63565b9687610d2591613e63565b64e8d4a51000900460018a0154610d3b91613e76565b80610dfb575b50610d4b88613c76565b5060010190610d5991613a7d565b90549060031b1c610d6991613e63565b90610d7391613e63565b64e8d4a5100090049760018101988954610d8c91613e76565b9182151598610dc598600164e8d4a51000610dbc6105229a8399839f99610911996104779b610963575050613e63565b04910155613e63565b0490557fda2a03409498a5fe8db3da030754afa618bc2228c0517ec5fa8c9b052979e9ea60206040516044358152a36001600c55005b610e0a60028b01918254613d12565b90558d610d41565b60405162461bcd60e51b815260206004820152601c60248201527f63616e6e6f7420736869667420696e746f2073616d652052656c6963000000006044820152606490fd5b60405162461bcd60e51b815260206004820152601860248201527f63616e6e6f74207368696674207a65726f20616d6f756e7400000000000000006044820152606490fd5b346102ab5760803660031901126102ab57610eb561395f565b610ebd613975565b90606435906044356001600160401b0383116102ab57366023840112156102ab5761076693610ef9610f1c943690602481600401359101613bcb565b92610f0c610f078433615130565b61505b565b610f17838383615386565b61572f565b615110565b346102ab576020806003193601126102ab576001600160401b036004358181116102ab57610f53903690600401613ae0565b9091610f5e82613dc7565b92610f6c6040519485613b8f565b828452601f19610f7b84613dc7565b018560005b8281106110b15750505060005b838110610ff257604080518781528651818901819052600092600582901b8301810191898b01918b9085015b828710610fc65785850386f35b909192938280610fe2600193603f198a8203018652885161393a565b9601920196019592919092610fb9565b8060051b820135601e19833603018112156102ab578201908135918483116102ab57870182360381136102ab57611031611091916110ac943691613bcb565b6000806040519261104184613b10565b602784527f416464726573733a206c6f772d6c6576656c2064656c65676174652063616c6c8c850152660819985a5b195960ca1b60408501528b81519101305af461108a61560b565b90306157aa565b61109b8288615843565b526110a68187615843565b50614846565b610f8d565b60608782018301528101610f80565b346102ab5760203660031901126102ab5760206110de600435613f97565b604051908152f35b346102ab5760403660031901126102ab576110ff61395f565b602435908115158092036102ab576001600160a01b03169033821461117357336000526005602052604060002082600052602052604060002060ff1981541660ff83161790556040519081527f17307eab39ab6107e8899845ad3d59bd9653f200f220920489ca2b5937696c3160203392a3005b60405162461bcd60e51b815260206004820152601960248201527f4552433732313a20617070726f766520746f2063616c6c6572000000000000006044820152606490fd5b346102ab5760003660031901126102ab57602060405160008152f35b346102ab5760003660031901126102ab57600f546040516001600160a01b039091168152602090f35b346102ab5760e03660031901126102ab576024356001600160a01b03811681036102ab5761122961398b565b6064356001600160401b0381116102ab57611248903690600401613ae0565b906084356001600160401b0381116102ab57611268903690600401613ae0565b60a4356001600160401b0381116102ab57366023820112156102ab57611298903690602481600401359101613bcb565b60c4356001600160a01b03811690036102ab576112b3614a25565b6001600160a01b038781167f0000000000000000000000000000000000000000000000000000000000000000909116146119205784156118e6578185036118a957833561186457600185116117ec575b60105460005b8181106117d9575050611320600435601554613d12565b61132b811515613d1f565b601555601254600160401b8110156116cb5761135081600161137693016012556139a1565b815491926001600160a01b0360039290921b82811b8019909416928c16901b9092161790565b9055601354600160401b8110156116cb5761139a8160016113c09301601355613a0f565b815491926001600160a01b0360039290921b82811b8019909416928b16901b9092161790565b9055600e54600160401b8110156116cb576113e481600161140d9301600e55613a46565b815491926001600160a01b0360039290921b82811b801990941660c435909316901b9092161790565b90556040519061141c82613b2b565b60008252602082014281526040830190600435825260608401928352601054600160401b8110156116cb578060016114579201601055613c02565b94909461174357518455516001840155516002830155518051906001600160401b0382116116cb57611499826114906003860154613c3c565b60038601613d82565b602090601f831160011461176457918060039261151d97969594600092611759575b50508160011b9160001990841b1c1916179101555b6115146114dc82613dc7565b946114ea6040519687613b8f565b828652601f196114f984613dc7565b013660208801376040519661150d88613b10565b3691613dde565b85523691613dde565b60208301526040820152601154600160401b8110156116cb578060016115469201601155613c76565b6117435781518051906001600160401b0382116116cb57600160401b82116116cb576020908354838555808410611726575b500182600052602060002060005b838110611712575050505060208201518051906001600160401b0382116116cb57600160401b82116116cb576020600184019182548484558085106116f5575b500190600052602060002060005b8381106116e15750505050600260409101910151908151916001600160401b0383116116cb57600160401b83116116cb5760209082548484558085106116ae575b500190600052602060002060005b83811061169a5785856012546000198101908111611684576040805160043581526001600160a01b0360c4358116602083015293841694909316927f916c1141fd0c2a70bb95c6e9f2376006b00f90a78c0db17abbf423c61db950df9190a4005b634e487b7160e01b600052601160045260246000fd5b600190602084519401938184015501611623565b6116c5908460005285846000209182019101613d6b565b86611615565b634e487b7160e01b600052604160045260246000fd5b6001906020845194019381840155016115d4565b61170c908460005285846000209182019101613d6b565b886115c6565b600190602084519401938184015501611586565b61173d908560005284846000209182019101613d6b565b87611578565b634e487b7160e01b600052600060045260246000fd5b015190508b806114bb565b906003840160005260206000209160005b601f19851681106117c157509260039260019261151d9897969583601f198116106117a9575b505050811b019101556114d0565b015160001983861b60f8161c191690558b808061179b565b91926020600181928685015181550194019201611775565b806117e560019261404b565b5001611309565b600160005b8682106117ff575050611303565b61180a828888613d02565b35111561182757600161181e828888613d02565b359101906117f1565b60405162461bcd60e51b8152602060048201526015602482015274756e736f72746564206c6576656c7320617272617960581b6044820152606490fd5b60405162461bcd60e51b815260206004820152601860248201527f72657175697265644d617475726974795b305d20213d203000000000000000006044820152606490fd5b60405162461bcd60e51b81526020600482015260156024820152740c2e4e4c2f240d8cadccee8d040dad2e6dac2e8c6d605b1b6044820152606490fd5b60405162461bcd60e51b8152602060048201526012602482015271656d707479206c6576656c7320617272617960701b6044820152606490fd5b60405162461bcd60e51b815260206004820152601f60248201527f63616e6e6f74206164642072657761726420746f6b656e20617320706f6f6c006044820152606490fd5b346102ab5760003660031901126102ab576040516000600180549061198982613c3c565b80855291818116908115611a1d57506001146119c4575b610ad0846119b081860382613b8f565b60405191829160208352602083019061393a565b600081815292507fb10e2d527612073b26eecdfd717e6a320cf44b4afac2b0732d9fcbe2b7fa0cf65b828410611a055750505081016020016119b0826119a0565b805460208587018101919091529093019281016119ed565b60ff191660208087019190915292151560051b850190920192506119b091508390506119a0565b346102ab5760403660031901126102ab57611a5d613975565b600435600052600a60205260406000209060018060a01b0316600052602052602060ff604060002054166040519015158152f35b346102ab5760403660031901126102ab57600435600052600b6020526020611abf6024356040600020613a7d565b905460405160039290921b1c6001600160a01b03168152f35b346102ab5760c03660031901126102ab5760248035600435611af861398b565b606435906001600160401b03908183116102ab57366023840112156102ab5782600401359182116102ab57368683850101116102ab576001600160a01b03926084359290848416908185036102ab5760a4359283151584036102ab57611b5c614a25565b60105480891015611d7f5760005b818110611d6c5750506003611b7e89613c02565b50858b611b8d81601554613d12565b611b9d6002850191825490613e76565b611ba8811515613d1f565b60155555611d37575b0191611bc782611bc18554613c3c565b85613d82565b600090601f8311600114611ca2579a82917ffa4328c2a1268b2b661914d91df191c5271c699ddc97ccedda086c6d25b099f99a9b9c600093611c95575b5050508160011b916000199060031b1c19161790555b611c43611c2688613a46565b819391549060031b60018060a01b03811b9283911b169119161790565b905515611c7957611c7490915b604080519788526001600160a01b0390911660208801529190921694918291820190565b0390a3005b50611c7482611c8786613a0f565b90549060031b1c1691611c50565b01013590508b8080611c04565b60008481526020808220949d929391601f198f16915b828210611d1d575050918d93917ffa4328c2a1268b2b661914d91df191c5271c699ddc97ccedda086c6d25b099f99c9d9e6001969410611d01575b50505050811b019055611c1a565b60001960f88660031b161c19920101351690558b808080611cf3565b8060018598878395978a0101358155019701930190611cb8565b611d65611d438b613a0f565b8b8a939293169083549060031b60018060a01b03811b9283911b169119161790565b9055611bb1565b80611d7860019261404b565b5001611b6a565b60405162461bcd60e51b8152602060048201526018818d01527f7365743a20706f6f6c20646f6573206e6f7420657869737400000000000000006044820152606490fd5b346102ab5760603660031901126102ab57600435602435611de261398b565b90611deb614da8565b8015611f2d57827fcf0974dfd867840133a0d4b02f1672f24017796fb8892d1e0d587692e4da90ab6020611ee694611e2382976147f8565b8360005260148252604060002094855495611e40878311156144fb565b610522611e4d8389613e76565b978883556001611ebf611e5f87614855565b9b8c9b8c968760005260148b5260406000209589875560038201546003880155611edd611eab60058401548060058b015560048501549a8b918260048d01558a6104776109118561404b565b8094819364e8d4a510009889958692613e63565b0494611ed08a820196875490613e76565b9081610963575050613e63565b04905587613e63565b04910155604051936001600160a01b0316907fb1ef6f1c5fca9fc83b81f6c18e6269a7942f041cadd830c353bb90f8680a3d4d600086a48152a36001600c55604051908152f35b60405162461bcd60e51b815260206004820152601860248201527f63616e6e6f742073706c6974207a65726f20616d6f756e7400000000000000006044820152606490fd5b346102ab5760203660031901126102ab5760206110de611f9061395f565b614f37565b346102ab576020806003193601126102ab576004356001600160a01b038116908190036102ab577ff0df1ecf66245243e1fe66eca783e2b1f173c34d37828b8788a74623e9a73e029182600052600a8152604060002033600052815260ff604060002054161561203e57600f80546001600160a01b03191683179055604051600090837f097cb0b4d8d03c9f5f6d24fdb4d1c0764243aab030e9e385b0295badfe7a73e28383a2f35b905061204933615868565b9160405161205681613b2b565b604281528281019160603684378151156121b9576030835381516001908110156121b957607860218401536041905b808211612175575050612132576120fe9361210d9260489260405196879376020b1b1b2b9b9a1b7b73a3937b61d1030b1b1b7bab73a1604d1b888601526120d5815180928a603789019101613917565b8401917001034b99036b4b9b9b4b733903937b6329607d1b603784015251809386840190613917565b01036028810185520183613b8f565b61212e60405192839262461bcd60e51b84526004840152602483019061393a565b0390fd5b6064836040519062461bcd60e51b825280600483015260248201527f537472696e67733a20686578206c656e67746820696e73756666696369656e746044820152fd5b9091600f811660108110156121b9576f181899199a1a9b1b9c1cb0b131b232b360811b901a6121a48486615857565b5360041c918015611684576000190190612085565b634e487b7160e01b600052603260045260246000fd5b346102ab5760203660031901126102ab576004356012548110156102ab5760126000527fbb8a6a4669ba250d26cd7a459eca9d215f8307e33aebe50379bc5a3617ec344401546040516001600160a01b039091168152602090f35b346102ab5760603660031901126102ab57602061224561395f565b602435612250614da8565b61225d601054821061400d565b61226682614855565b809181600052601485528060046040600020015561228682604435614130565b604051936001600160a01b0316907fb1ef6f1c5fca9fc83b81f6c18e6269a7942f041cadd830c353bb90f8680a3d4d600086a46001600c558152f35b346102ab5760203660031901126102ab5760206122e0600435614ffa565b6040516001600160a01b039091168152f35b346102ab5760203660031901126102ab576004356001600160401b0381116102ab57612322903690600401613ae0565b9061232b614da8565b60005b82811061233c576001600c55005b8061235361234d6001938686613d02565b3561404b565b500161232e565b346102ab5760203660031901126102ab57600435612376614da8565b61237f81614ffa565b6001600160a01b03818116913383036124675760207f6aaee64d11e8979fa392cd6388058c820f43709933f6a297e6e1005dddca62d691856000526014825261245960406000209485549283916124046123f060048a015499600260056123e58d613c76565b509201549101613a7d565b819291549061049287838360031b1c613e76565b905561240f8a61519e565b8960005260148652612443604060002060056000918281558260018201558260028201558260038201558260048201550155565b61244c886139a1565b90549060031b1c16614dfe565b604051908152a46001600c55005b60405162461bcd60e51b815260206004820152601c60248201527f796f7520646f206e6f74206f776e207468697320706f736974696f6e000000006044820152606490fd5b346102ab5760203660031901126102ab576124c5614da8565b6124d060043561404b565b506001600c55005b346102ab5760203660031901126102ab5760043560085481101561250f576125016020916139d8565b90546040519160031b1c8152f35b60405162461bcd60e51b815260206004820152602c60248201527f455243373231456e756d657261626c653a20676c6f62616c20696e646578206f60448201526b7574206f6620626f756e647360a01b6064820152608490fd5b346102ab5761257736613aca565b61257f614da8565b61258a8215156144b8565b612593816147f8565b80600052602091601483526040600020926004840154906125b38261404b565b8554956000916125c38689613e76565b908183556005830154986125d689614737565b99878b8a83821461290257509261266b85612653856001610477878c61264c61263961268c9d6104fc9f9d61262c6126196104fc9f928f93610477600291613c76565b6104928294925492838360031b1c613e76565b9055600261047786613c76565b6104928294925492838360031b1c613d12565b9055613c76565b97909364e8d4a51000988995549060031b1c90613e63565b04946105226126806001890197885490613e76565b9d60016104778d613c76565b049055861561279d57956126aa600283949596979801918254613d12565b90555b61058d575082906126bd83613a0f565b90546001600160a01b03939160031b1c831680612724575b50612714907f191a58d19a6a9b76e2e91bdc04ecbe7553dc094a5ad7af78175a0d9f884e264a93612705866139a1565b90549060031b1c163390614dfe565b6040519384523393a46001600c55005b8091503b156102ab57600080916044604051809481936305f7936f60e51b83528b60048401528a60248401525af18015610b4c577f191a58d19a6a9b76e2e91bdc04ecbe7553dc094a5ad7af78175a0d9f884e264a9361271492879261278e575b509350906126d5565b61279790613b61565b88612785565b816127b0575b50809192939495506126ad565b60026127c0910196875490613d12565b6040516370a0823160e01b8152306004820152966001600160a01b03907f000000000000000000000000000000000000000000000000000000000000000090858a6024818686165afa80156106ff5785969798999a86916128d1575b50848111156128c657506128308480613e76565b905582612845575b50508695949392506127a3565b82612851913390614dfe565b61285a86613a0f565b90549060031b1c16908161286f575b80612838565b908092503b156106bf5782916044839260405194859384926325841fb560e01b84528c600485015260248401525af180156106b4579082916128b2575b80612869565b6128bb90613b61565b6106b15780866128ac565b612830908095613e76565b809650888092503d83116128fb575b6128ea8183613b8f565b810103126102ab578594518b61281c565b503d6128e0565b97505061268c9261266b856126536104fc979560016104776104fc9760009e61264c61261986600261047786613c76565b346102ab5760203660031901126102ab576004358060005260146020526040600020546129c25761296381613ea3565b61297d5780612978610f076107669333615130565b61519e565b60405162461bcd60e51b815260206004820152601860248201527f636f6e7461696e732070656e64696e67207265776172647300000000000000006044820152606490fd5b60405162461bcd60e51b815260206004820152601060248201526f18dbdb9d185a5b9cc819195c1bdcda5d60821b6044820152606490fd5b346102ab57610766610f1c612a0e36613a95565b9060405192612a1c84613b74565b60008452610f0c610f078433615130565b346102ab5760403660031901126102ab57612a46613975565b336001600160a01b03821603612a625761076690600435614d1e565b60405162461bcd60e51b815260206004820152602f60248201527f416363657373436f6e74726f6c3a2063616e206f6e6c792072656e6f756e636560448201526e103937b632b9903337b91039b2b63360891b6064820152608490fd5b346102ab57612acd36613aca565b90612ad6614da8565b612ae18115156144b8565b612aea826147f8565b81600052602060148152604060002091600483015491612b098361404b565b93805490600090612b1a8584613e76565b808255600582015497612b2c8a614737565b988989828214612e975791612b80612b6c88999360026104778761264c612b5888856104778e9d613c76565b81929154906104928c838360031b1c613e76565b819291549061049289838360031b1c613d12565b90555b612b8c8b613c76565b5060010190612b9a91613a7d565b93909164e8d4a51000948593549060031b1c612bb591613e63565b90612bbf91613e63565b049260018501938454612bd191613e76565b9a612bdb8b613c76565b5060010190612be991613a7d565b90549060031b1c612bf991613e63565b90612c0391613e63565b0490558180612e8e575b15612d3257600201612c20878254613d12565b90555b61058d575084612c3284613a0f565b90546001600160a01b03949160031b1c841680612cb6575b50612c7a817f614253edaf5943287293d855afffbb1f5f0403c51c84143aceaf27a50727b2fc95612705886139a1565b604051908152847f191a58d19a6a9b76e2e91bdc04ecbe7553dc094a5ad7af78175a0d9f884e264a843393a46040519384523393a46001600c55005b809492503b156102ab57600080946044604051809781936305f7936f60e51b83528c60048401528660248401525af1938415610b4c57818893612c7a927f614253edaf5943287293d855afffbb1f5f0403c51c84143aceaf27a50727b2fc97612d23575b50955050612c4a565b612d2c90613b61565b8a612d1a565b6002915001612d42815487613d12565b6040516370a0823160e01b815230600482015290916001600160a01b03917f0000000000000000000000000000000000000000000000000000000000000000919086816024818787165afa908115612e8357908695949392918691612e52575b5084811115612e475750612db68480613e76565b905582612dc6575b505050612c23565b82612dd2913390614dfe565b612ddb87613a0f565b90549060031b1c169081612df0575b80612dbe565b908092503b156106bf5782916044839260405194859384926325841fb560e01b84528d600485015260248401525af180156106b457908291612e33575b80612dea565b612e3c90613b61565b6106b1578087612e2d565b612db6908095613e76565b809650888092503d8311612e7c575b612e6b8183613b8f565b810103126102ab578594518c612da2565b503d612e61565b6040513d88823e3d90fd5b50861515612c0d565b955050610477958189612eb46126198695600260009c8d9c613c76565b9055612b83565b346102ab5760403660031901126102ab57612ed461395f565b60243590612ee181614f37565b821015612f145760018060a01b031660005260066020526040600020906000526020526020604060002054604051908152f35b60405162461bcd60e51b815260206004820152602b60248201527f455243373231456e756d657261626c653a206f776e657220696e646578206f7560448201526a74206f6620626f756e647360a81b6064820152608490fd5b346102ab576020806003193601126102ab57606080604051612f8e81613b2b565b60008152600084820152600060408201520152612fac600435613c02565b50604051612fb981613b2b565b81548152600191828101549084830191825260036002820154916040850192835201916040519286600096825492612ff084613c3c565b8088529382811690811561308b575060011461304d575b5050505061301b83610ad095960384613b8f565b6060850192835260405195869581875251908601525160408501525160608401525160808084015260a083019061393a565b600090815282812092985092915b8284106130785750505083019094019361301b86610ad085613007565b80548785018a015292880192810161305b565b60ff19168489015250505090151560051b840101945061301b86610ad085613007565b346102ab5760403660031901126102ab57610766600435600b6130cf613975565b9180600052602090600a82526130ec600160406000200154614c13565b6000818152600a835260408082206001600160a01b0390961680835295845290205460ff1615613125575b600052526040600020615966565b80600052600a825260406000208460005282526040600020600160ff198254161790553384827f2f8788117e7eff1d82e926ec794901d17c78024a50270940304540a733656f0d6000604051a4613117565b346102ab5760203660031901126102ab57600435600052600a6020526020600160406000200154604051908152f35b346102ab576107666131b736613a95565b916131c5610f078433615130565b615386565b346102ab5760203660031901126102ab57600435600e548110156102ab57600e6000527fbb7b4a454dc3493923482f07822329ed19e8244eff582cc204f8554c3620c3fd01546040516001600160a01b039091168152602090f35b346102ab5760003660031901126102ab576020600854604051908152f35b346102ab5760003660031901126102ab576020601554604051908152f35b346102ab5760203660031901126102ab5760206110de600435613ea3565b346102ab576020806003193601126102ab576004359061329d614da8565b81600052601481526040600020916004830154926132ba8461404b565b938154926000946005840154946132d083614737565b958087146134da57613349889961330a836132f661047e6104fc9660026104778d613c76565b90556104d06104bc8c60026104778d613c76565b9390613328836104fc64e8d4a51000978894549060031b1c89613e63565b049461052261333d60018c0197885490613e76565b9b60016104778c613c76565b049055858515613374575050505060026133669101918254613d12565b90555b61058d576001600c55005b949193909294613389575b5050505050613369565b6002613399910191825490613d12565b6040516370a0823160e01b815230600482015290946001600160a01b03937f000000000000000000000000000000000000000000000000000000000000000093919281816024818989165afa9182156134cf57899261349e575b50508681111561349357506134088680613e76565b9055841561337f5761341f85613424933390614dfe565b613a0f565b90549060031b1c16918261343a575b808061337f565b823b1561348e57604484928360405195869485936325841fb560e01b8552600485015260248401525af19081156106b4578291613478575b80613433565b61348190613b61565b61348c578083613472565bfd5b505050fd5b613408908097613e76565b8199508092503d83116134c8575b6134b68183613b8f565b810103126102ab5787965189806133f3565b503d6134ac565b6040513d8b823e3d90fd5b96506104fc61334961330a9960009a8b9a6104d3565b346102ab5760403660031901126102ab5761350961395f565b6001600160a01b0390602435828061352083614ffa565b16921691808314613620578033149081156135fb575b501561359057600081815260046020526040812080546001600160a01b031916841790559261356482614ffa565b1691604051927f8c5be1e5ebec7d5bd14f71427d1e84f3dd0314c0f7b2291e5b200ac8c7c3b9258585a4f35b60405162461bcd60e51b815260206004820152603d60248201527f4552433732313a20617070726f76652063616c6c6572206973206e6f7420746f60448201527f6b656e206f776e6572206f7220617070726f76656420666f7220616c6c0000006064820152608490fd5b9050600052600560205260406000203360005260205260ff6040600020541684613536565b60405162461bcd60e51b815260206004820152602160248201527f4552433732313a20617070726f76616c20746f2063757272656e74206f776e656044820152603960f91b6064820152608490fd5b346102ab5760003660031901126102ab576020601054604051908152f35b346102ab5760203660031901126102ab5760206122e060043561501d565b346102ab5760003660031901126102ab57604051600080546136cc81613c3c565b80845290600190818116908115611a1d57506001146136f557610ad0846119b081860382613b8f565b600080805292507f290decd9548b62a8d60345a988386fc84ba6bc95484008f6362f93160ef3e5635b8284106137365750505081016020016119b0826119a0565b8054602085870181019190915290930192810161371e565b346102ab5760203660031901126102ab5760606040805161376e81613b10565b82815282602082015201526137e9613787600435613c76565b50610ad06040519161379883613b10565b6137a181613cb1565b83526137c260026137b460018401613cb1565b926020860193845201613cb1565b90604084019182526137ff60405195869560208752516060602088015260808701906138e3565b915191601f1992838783030160408801526138e3565b9151908483030160608501526138e3565b346102ab5760203660031901126102ab576004359063ffffffff60e01b82168092036102ab5760209163d3b04e9560e01b8114908115613852575b5015158152f35b635a05180f60e01b81149150811561386c575b508361384b565b637965db0b60e01b811491508115613886575b5083613865565b63780e9d6360e01b8114915081156138a0575b508361387f565b6380ac58cd60e01b8114915081156138d2575b81156138c1575b5083613899565b6301ffc9a760e01b149050836138ba565b635b5e139f60e01b811491506138b3565b90815180825260208080930193019160005b828110613903575050505090565b8351855293810193928101926001016138f5565b60005b83811061392a5750506000910152565b818101518382015260200161391a565b9060209161395381518092818552858086019101613917565b601f01601f1916010190565b600435906001600160a01b03821682036102ab57565b602435906001600160a01b03821682036102ab57565b604435906001600160a01b03821682036102ab57565b6012548110156121b95760126000527fbb8a6a4669ba250d26cd7a459eca9d215f8307e33aebe50379bc5a3617ec34440190600090565b6008548110156121b95760086000527ff3f7a9fe364faab93b216da50a3214154f22a0a2b415b23a84c8169e8b636ee30190600090565b6013548110156121b95760136000527f66de8ffda797e3de9c05e8fc57b3bf0ec28a930d40b0d285d93c06501cf6a0900190600090565b600e548110156121b957600e6000527fbb7b4a454dc3493923482f07822329ed19e8244eff582cc204f8554c3620c3fd0190600090565b80548210156121b95760005260206000200190600090565b60609060031901126102ab576001600160a01b039060043582811681036102ab579160243590811681036102ab579060443590565b60409060031901126102ab576004359060243590565b9181601f840112156102ab578235916001600160401b0383116102ab576020808501948460051b0101116102ab57565b606081019081106001600160401b038211176116cb57604052565b608081019081106001600160401b038211176116cb57604052565b60c081019081106001600160401b038211176116cb57604052565b6001600160401b0381116116cb57604052565b602081019081106001600160401b038211176116cb57604052565b90601f801991011681019081106001600160401b038211176116cb57604052565b6001600160401b0381116116cb57601f01601f191660200190565b929192613bd782613bb0565b91613be56040519384613b8f565b8294818452818301116102ab578281602093846000960137010152565b6010548110156121b957601060005260021b7f1b6847dc741a1b0cd08d278845f9d819d87b734759afb55fe2de5cb82a9ae6720190600090565b90600182811c92168015613c6c575b6020831014613c5657565b634e487b7160e01b600052602260045260246000fd5b91607f1691613c4b565b6011548110156121b9576003906011600052027f31ecc21a745e3968a04e9570e4425bc18fa8019c68028196b546d1669c200c680190600090565b9060405191828154918282526020928383019160005283600020936000905b828210613ce857505050613ce692500383613b8f565b565b855484526001958601958895509381019390910190613cd0565b91908110156121b95760051b0190565b9190820180921161168457565b15613d2657565b60405162461bcd60e51b815260206004820152601b60248201527f746f74616c416c6c6f63506f696e742063616e6e6f74206265203000000000006044820152606490fd5b818110613d76575050565b60008155600101613d6b565b9190601f8111613d9157505050565b613ce6926000526020600020906020601f840160051c83019310613dbd575b601f0160051c0190613d6b565b9091508190613db0565b6001600160401b0381116116cb5760051b60200190565b9291613de982613dc7565b91613df76040519384613b8f565b829481845260208094019160051b81019283116102ab57905b828210613e1d5750505050565b81358152908301908301613e10565b64e8d4a51000908060001904821181151516611684570290565b670de0b6b3a7640000908060001904821181151516611684570290565b8060001904821181151516611684570290565b9190820391821161168457565b8115613e8d570490565b634e487b7160e01b600052601260045260246000fd5b6000526014602052613f3460406000206001613f2b64e8d4a51000613f1f6004850154613ecf81613c02565b5090815491613edd8261478e565b9087810154613eec8142613e76565b9081151580613f8e575b613f37575b505050506104fc90610522613f11895492613c76565b508860058b01549101613a7d565b04600284015490613d12565b91015490613e76565b90565b92613f79613f74613f6b6104fc9798956002613f62613f7e97613f5c613f849b614675565b90613e63565b91015490613e63565b60155490613e83565b613e2c565b613e83565b90613d12565b9190388080613efb565b50831515613ef6565b6000526014602052604060002090613fb26004830154613c76565b50908154926001841461400457613fce60038092015442613e76565b9060001994858101908111611684575b613fe88186613a7d565b905490831b1c831015613ffc578501613fde565b945050509050565b50915050600090565b1561401457565b60405162461bcd60e51b815260206004820152600f60248201526e1a5b9d985b1a59081c1bdbdb081251608a1b6044820152606490fd5b90614059601054831061400d565b61406282613c02565b5091600183018054906140758242613e76565b9480549580614086575b5050505050565b61408f8561478e565b93846140de575b5050507fcb7325664a4a3b7c7223eefc492a97ca4fdf94d46884621e5a8fae5a04b2b9d291606091429055604051904282526020820152856040820152a2388080808061407f565b8297613f7e86613f79613f74613f6b7fcb7325664a4a3b7c7223eefc492a97ca4fdf94d46884621e5a8fae5a04b2b9d29a986002613f6260609c9a613f5c6141259b614675565b809755918193614096565b801561447d5760008281526014602052604091828220600481015492836141568161404b565b92848154898552601460205288852095865480156000146143e657508490670de0b6b3a76400005b6003988901805490916141918242613e76565b9061419b91613e63565b670de0b6b3a764000090046141af91613d12565b9055876141bc8585613d12565b8087558d8282858860058c0154946141d390614737565b9a858c8097141560001461047761428b9c6104fc9b61427f9a614263996104fc9861424d986001976143cc575061423c61264c936104929261422f61421d8c60026104778c613c76565b610492829492549283838d1b1c613e76565b9055600261047788613c76565b928195849392549485911b1c613d12565b9a909464e8d4a510009b8c9654911b1c90613e63565b04966001610477614279828c019a8b5490613e76565b9b613c76565b9054908b1b1c90613e63565b04905581156143c55760026142a39101918254613d12565b90555b6142af84613a0f565b90546001600160a01b03938492909190821b1c821680614370575b506142d4866139a1565b9054911b1c168551916323b872dd60e01b60208401523360248401523060448401528460648401526064835260a08301908382106001600160401b0383111761435c57507f9a2a1e97e6d641080089aafc36750cfdef4c79f8b3ace6fa4c384fa2f047695994926020949261434a928952614e37565b61435387614ffa565b169451908152a4565b634e487b7160e01b81526041600452602490fd5b809192503b156106bf5782809160448951809481936303004b4760e01b83528d60048401528a60248401525af180156143bb5790849291156142ca576143b590613b61565b386142ca565b87513d85823e3d90fd5b50506142a6565b91505061264c915061049261423c88600261047788613c76565b91939490928083106000146144485750508061440e61440761441493613e46565b9189613d12565b90613e83565b670de0b6b3a764000090810390811161443457918787928195945b61417e565b634e487b7160e01b85526011600452602485fd5b928282969593851060001461446e5761442f9061440e61446787613e46565b9187613d12565b506706f05b59d3b2000061417e565b60405162461bcd60e51b815260206004820152601360248201527219195c1bdcda5d1a5b99c80c08185b5bdd5b9d606a1b6044820152606490fd5b156144bf57565b60405162461bcd60e51b81526020600482015260146024820152731dda5d1a191c985dda5b99c80c08185b5bdd5b9d60621b6044820152606490fd5b1561450257565b60405162461bcd60e51b815260206004820152601860248201527f616d6f756e742065786365656473206465706f736974656400000000000000006044820152606490fd5b1561454e57565b60405162461bcd60e51b815260206004820152601b60248201527f52656c696373206e6f74206f66207468652073616d6520706f6f6c00000000006044820152606490fd5b95929390949195600052601460205260056040600020015495856000526145c260056040600020015496614737565b948592838914158061465c575b848914159081614643575b808061463c575b1561460057505050506145fc91600261047761263993613c76565b9055565b92955090911561461e5750506145fc91600261047761263993613c76565b90935061462a57505050565b6145fc91600261047761263993613c76565b50816145e1565b6146556123f08b600261047789613c76565b90556145da565b61466e6123f08b600261047788613c76565b90556145cf565b90602060018060a01b03600f5416926024604051809581936315dd902560e21b835260048301525afa918215610b4c57600092614704575b506753444835ec58000082116146bf57565b60405162461bcd60e51b815260206004820152601e60248201527f6d6178696d756d20656d697373696f6e207261746520657863656564656400006044820152606490fd5b90916020823d821161472f575b8161471e60209383613b8f565b810103126106b157505190386146ad565b3d9150614711565b9061474182613f97565b918060005260146020528260056040600020018181540361476157505050565b557f8bdaee675270281b7bc2d5b9ced20517ecf5ce96158973ef78072a7bc1491b446020604051858152a2565b9061479a600092613c76565b50600281019081546000926001809301905b8285106147ba575050505050565b9091926147ed8597613f7e6147d0849886613a7d565b90546147dc8c89613a7d565b929054600393841b1c921b1c613e63565b9601939291906147ac565b6148029033615130565b1561480957565b60405162461bcd60e51b81526020600482015260156024820152741b9bdd081bdddb995c881bdc88185c1c1c9bdd9959605a1b6044820152606490fd5b60001981146116845760010190565b90614861600d54614846565b9182600d558260409182519261487684613b74565b60008085526001600160a01b0383169182156149e2576000858152600260205260409020546001600160a01b031661499f57600854858352602090600982528083852055600160401b81101561498b576148f36148da8260018a94016008556139d8565b819391549060031b600019811b9283911b169119161790565b90556148fe85614f37565b8484526006825282842081855282528683852055868452600782528284205583835260038152818320805490600182018092116144345784889693946002610f1c9a96613ce69c9a98957fddf252ad1be2c89b69c2b068fc378daa952ba7f163c4a11628f55a4df523b3ef955587845252808220856001600160601b0360a01b82541617905551a461563b565b634e487b7160e01b84526041600452602484fd5b5162461bcd60e51b815260206004820152601c60248201527f4552433732313a20746f6b656e20616c7265616479206d696e746564000000006044820152606490fd5b5162461bcd60e51b815260206004820181905260248201527f4552433732313a206d696e7420746f20746865207a65726f20616464726573736044820152606490fd5b3360009081527fcc154f7b876a360d54d1dd91709acfea951faf52857cd1bb669415168b037aed602090815260408083205490927f523a704056dcd17bcf83bed8b68c59416dac1119be77755efe3bde0a64e46e0c9160ff1615614a895750505050565b614a9233615868565b91845190614a9f82613b2b565b60428252848201926060368537825115614bff5760308453825190600191821015614bff5790607860218501536041915b818311614b9157505050614b4f57604861212e938693614b3393614b24985198899376020b1b1b2b9b9a1b7b73a3937b61d1030b1b1b7bab73a1604d1b8a8601526120d5815180928c603789019101613917565b01036028810187520185613b8f565b5192839262461bcd60e51b84526004840152602483019061393a565b60648486519062461bcd60e51b825280600483015260248201527f537472696e67733a20686578206c656e67746820696e73756666696369656e746044820152fd5b909192600f81166010811015614beb576f181899199a1a9b1b9c1cb0b131b232b360811b901a614bc18587615857565b5360041c928015614bd757600019019190614ad0565b634e487b7160e01b82526011600452602482fd5b634e487b7160e01b83526032600452602483fd5b634e487b7160e01b81526032600452602490fd5b600090808252602090600a8252604092838120338252835260ff848220541615614c3d5750505050565b614c4633615868565b91845190614c5382613b2b565b60428252848201926060368537825115614bff5760308453825190600191821015614bff5790607860218501536041915b818311614cd857505050614b4f57604861212e938693614b3393614b24985198899376020b1b1b2b9b9a1b7b73a3937b61d1030b1b1b7bab73a1604d1b8a8601526120d5815180928c603789019101613917565b909192600f81166010811015614beb576f181899199a1a9b1b9c1cb0b131b232b360811b901a614d088587615857565b5360041c928015614bd757600019019190614c84565b90614d5c916000818152600a6020526040918282209360018060a01b03169384835260205260ff8383205416614d5f575b8152600b602052206159d4565b50565b808252600a60205282822084835260205282822060ff1981541690553384827ff6391f5c32d9c69d2a47ea670b442974b53935d1edc7fd64eb21e047a839171b858751a4614d4f565b6002600c5414614db9576002600c55565b60405162461bcd60e51b815260206004820152601f60248201527f5265656e7472616e637947756172643a207265656e7472616e742063616c6c006044820152606490fd5b60405163a9059cbb60e01b60208201526001600160a01b039092166024830152604480830193909352918152613ce691614e3782613b2b565b60018060a01b03169060405160408101908082106001600160401b038311176116cb57614ea8916040526020938482527f5361666545524332303a206c6f772d6c6576656c2063616c6c206661696c6564858301526000808587829751910182855af1614ea261560b565b916157aa565b805180614eb6575b50505050565b81849181010312614f3357820151908115918215036106b15750614edc57808080614eb0565b6084906040519062461bcd60e51b82526004820152602a60248201527f5361666545524332303a204552433230206f7065726174696f6e20646964206e6044820152691bdd081cdd58d8d9595960b21b6064820152fd5b5080fd5b6001600160a01b03168015614f5757600052600360205260406000205490565b60405162461bcd60e51b815260206004820152602960248201527f4552433732313a2061646472657373207a65726f206973206e6f7420612076616044820152683634b21037bbb732b960b91b6064820152608490fd5b15614fb557565b60405162461bcd60e51b815260206004820152601860248201527f4552433732313a20696e76616c696420746f6b656e20494400000000000000006044820152606490fd5b6000908152600260205260409020546001600160a01b0316613f34811515614fae565b600081815260026020526040902054615040906001600160a01b03161515614fae565b6000908152600460205260409020546001600160a01b031690565b1561506257565b60405162461bcd60e51b815260206004820152602d60248201527f4552433732313a2063616c6c6572206973206e6f7420746f6b656e206f776e6560448201526c1c881bdc88185c1c1c9bdd9959609a1b6064820152608490fd5b60809060208152603260208201527f4552433732313a207472616e7366657220746f206e6f6e20455243373231526560408201527131b2b4bb32b91034b6b83632b6b2b73a32b960711b60608201520190565b1561511757565b60405162461bcd60e51b81528061212e600482016150bd565b906001600160a01b03808061514484614ffa565b16931691838314938415615177575b508315615161575b50505090565b61516d9192935061501d565b161438808061515b565b909350600052600560205260406000208260005260205260ff604060002054169238615153565b6151a781614ffa565b6001600160a01b03811690816152ff575060085482600052600960205280604060002055600160401b8110156116cb576151eb6148da8260018694016008556139d8565b90555b600854600019919082810190811161168457600092848452600960205260409161521b83862054916139d8565b90549060031b1c8061522f6148da846139d8565b90558552600960205282852055848452838281205560085480156152eb578101615258816139d8565b8382549160031b1b191690556008558484526004602052818420906001600160601b0360a01b91828154169055838552600360205282852080549182019182116152d75755848452600260205281842080549091169055517fddf252ad1be2c89b69c2b068fc378daa952ba7f163c4a11628f55a4df523b3ef908390a4565b634e487b7160e01b86526011600452602486fd5b634e487b7160e01b85526031600452602485fd5b61530890614f37565b600019810190811161168457600090838252602090600782526040918284205482810361534f575b50858452838381205584845260068152828420918452528120556151ee565b8585526006825283852083865282528385205486865260068352848620828752835280858720558552600782528385205538615330565b9061539083614ffa565b6001600160a01b03838116929181168390036155b857811692831561556757826154d1575060085484600052600960205280604060002055600160401b8110156116cb576153e86148da8260018894016008556139d8565b90555b81830361549e575b5060008381526004602052604081206001600160601b0360a01b90818154169055828252600360205260408220805490600019820191821161548a57558382526003602052604082208054906001820180921161548a57907fddf252ad1be2c89b69c2b068fc378daa952ba7f163c4a11628f55a4df523b3ef939291558582526002602052846040832091825416179055604051a4565b634e487b7160e01b84526011600452602484fd5b6154a790614f37565b604060008481526006602052818120838252602052858282205585815260076020522055386153f3565b8383036154df575b506153eb565b6154e890614f37565b6000198101908111611684576000908582526020906007825260409182842054828103615530575b5087845283838120558584526006815282842091845252812055386154d9565b8685526006825283852083865282528385205487865260068352848620828752835280858720558552600782528385205538615510565b60405162461bcd60e51b8152602060048201526024808201527f4552433732313a207472616e7366657220746f20746865207a65726f206164646044820152637265737360e01b6064820152608490fd5b60405162461bcd60e51b815260206004820152602560248201527f4552433732313a207472616e736665722066726f6d20696e636f72726563742060448201526437bbb732b960d91b6064820152608490fd5b3d15615636573d9061561c82613bb0565b9161562a6040519384613b8f565b82523d6000602084013e565b606090565b9091600091803b15615726576156866020918493604051948580948193630a85bd0160e11b9a8b8452336004850152846024850152604484015260806064840152608483019061393a565b03926001600160a01b03165af1908290826156de575b50506156d0576156aa61560b565b805190816156cb5760405162461bcd60e51b81528061212e600482016150bd565b602001fd5b6001600160e01b0319161490565b909192506020813d821161571e575b816156fa60209383613b8f565b81010312614f335751906001600160e01b0319821682036106b1575090388061569c565b3d91506156ed565b50505050600190565b91926000929190813b156157a0576020916157859185604051958680958194630a85bd0160e11b9b8c845233600485015260018060a01b038095166024850152604484015260806064840152608483019061393a565b0393165af1908290826156de5750506156d0576156aa61560b565b5050505050600190565b9192901561580c57508151156157be575090565b3b156157c75790565b60405162461bcd60e51b815260206004820152601d60248201527f416464726573733a2063616c6c20746f206e6f6e2d636f6e74726163740000006044820152606490fd5b82519091501561581f5750805190602001fd5b60405162461bcd60e51b81526020600482015290819061212e90602483019061393a565b80518210156121b95760209160051b010190565b9081518110156121b9570160200190565b6040519061587582613b10565b602a82526020820160403682378251156121b9576030905381516001908110156121b957607860218401536029905b8082116158f85750506158b45790565b606460405162461bcd60e51b815260206004820152602060248201527f537472696e67733a20686578206c656e67746820696e73756666696369656e746044820152fd5b9091600f81166010811015615951576f181899199a1a9b1b9c1cb0b131b232b360811b901a6159278486615857565b5360041c91801561593c5760001901906158a4565b60246000634e487b7160e01b81526011600452fd5b60246000634e487b7160e01b81526032600452fd5b919060018301600090828252806020526040822054156000146159ce57845494600160401b8610156159ba57836159aa6148da886001604098999a01855584613a7d565b9055549382526020522055600190565b634e487b7160e01b83526041600452602483fd5b50925050565b90600182019060009281845282602052604084205490811515600014615abd5760001991808301818111615aa957825490848201918211615a9557808203615a60575b50505080548015615a4c57820191615a2f8383613a7d565b909182549160031b1b191690555582526020526040812055600190565b634e487b7160e01b86526031600452602486fd5b615a80615a706148da9386613a7d565b90549060031b1c92839286613a7d565b90558652846020526040862055388080615a17565b634e487b7160e01b88526011600452602488fd5b634e487b7160e01b87526011600452602487fd5b505050509056fea264697066735822122092497f06588a5255c7a0127d7817810453770490173d69b08fde95d73454789864736f6c63430008100033",
    "linkReferences": {}
  },
  "methodIdentifiers": {
    "DEFAULT_ADMIN_ROLE()": "a217fddf",
    "addPool(uint256,address,address,uint256[],uint256[],string,address)": "9a0e584a",
    "approve(address,uint256)": "095ea7b3",
    "balanceOf(address)": "70a08231",
    "burn(uint256)": "42966c68",
    "createRelicAndDeposit(address,uint256,uint256)": "6705fcf3",
    "deposit(uint256,uint256)": "e2bbb158",
    "emergencyWithdraw(uint256)": "5312ea8e",
    "emissionCurve()": "9a67759b",
    "getApproved(uint256)": "081812fc",
    "getLevelInfo(uint256)": "030101db",
    "getPoolInfo(uint256)": "2f380b35",
    "getPositionForId(uint256)": "e48dc135",
    "getRoleAdmin(bytes32)": "248a9ca3",
    "getRoleMember(bytes32,uint256)": "9010d07c",
    "getRoleMemberCount(bytes32)": "ca15c873",
    "grantRole(bytes32,address)": "2f2ff15d",
    "harvest(uint256)": "ddc63262",
    "hasRole(bytes32,address)": "91d14854",
    "isApprovedForAll(address,address)": "e985e9c5",
    "levelOnUpdate(uint256)": "a6443e1e",
    "massUpdatePools(uint256[])": "57a5b58c",
    "merge(uint256,uint256)": "d1c2babb",
    "modifyPool(uint256,uint256,address,string,address,bool)": "8d74c2bf",
    "multicall(bytes[])": "ac9650d8",
    "name()": "06fdde03",
    "nftDescriptor(uint256)": "215e83eb",
    "ownerOf(uint256)": "6352211e",
    "pendingReward(uint256)": "12f7086c",
    "poolLength()": "081e3eda",
    "poolToken(uint256)": "6e7d4019",
    "renounceRole(bytes32,address)": "36568abe",
    "revokeRole(bytes32,address)": "d547741f",
    "rewardToken()": "f7c618c1",
    "rewarder(uint256)": "c346253d",
    "safeTransferFrom(address,address,uint256)": "42842e0e",
    "safeTransferFrom(address,address,uint256,bytes)": "b88d4fde",
    "setApprovalForAll(address,bool)": "a22cb465",
    "setEmissionCurve(address)": "6ecbae3f",
    "shift(uint256,uint256,uint256)": "b9be8cd5",
    "split(uint256,uint256,address)": "7747dd81",
    "supportsInterface(bytes4)": "01ffc9a7",
    "symbol()": "95d89b41",
    "tokenByIndex(uint256)": "4f6ccce7",
    "tokenOfOwnerByIndex(address,uint256)": "2f745c59",
    "tokenURI(uint256)": "c87b56dd",
    "totalAllocPoint()": "17caf6f1",
    "totalSupply()": "18160ddd",
    "transferFrom(address,address,uint256)": "23b872dd",
    "updatePool(uint256)": "51eb05a6",
    "updatePosition(uint256)": "09f1c80a",
    "withdraw(uint256,uint256)": "441a3e70",
    "withdrawAndHarvest(uint256,uint256)": "348b597f"
  },
  "id": 0
}