{
  "abi": [
    {
      "inputs": [
        {
          "internalType": "uint256",
          "name": "_rewardMultiplier",
          "type": "uint256"
        },
        {
          "internalType": "uint256",
          "name": "_depositBonus",
          "type": "uint256"
        },
        {
          "internalType": "uint256",
          "name": "_minimum",
          "type": "uint256"
        },
        {
          "internalType": "uint256",
          "name": "_cadence",
          "type": "uint256"
        },
        {
          "internalType": "contract IERC20",
          "name": "_rewardToken",
          "type": "address"
        },
        {
          "internalType": "contract IReliquary",
          "name": "_reliquary",
          "type": "address"
        }
      ],
      "stateMutability": "nonpayable",
      "type": "constructor"
    },
    {
      "inputs": [],
      "name": "cadence",
      "outputs": [
        {
          "internalType": "uint256",
          "name": "",
          "type": "uint256"
        }
      ],
      "stateMutability": "view",
      "type": "function"
    },
    {
      "inputs": [
        {
          "internalType": "uint256",
          "name": "relicId",
          "type": "uint256"
        }
      ],
      "name": "claimDepositBonus",
      "outputs": [],
      "stateMutability": "nonpayable",
      "type": "function"
    },
    {
      "inputs": [],
      "name": "depositBonus",
      "outputs": [
        {
          "internalType": "uint256",
          "name": "",
          "type": "uint256"
        }
      ],
      "stateMutability": "view",
      "type": "function"
    },
    {
      "inputs": [
        {
          "internalType": "uint256",
          "name": "",
          "type": "uint256"
        }
      ],
      "name": "lastDepositTime",
      "outputs": [
        {
          "internalType": "uint256",
          "name": "",
          "type": "uint256"
        }
      ],
      "stateMutability": "view",
      "type": "function"
    },
    {
      "inputs": [],
      "name": "minimum",
      "outputs": [
        {
          "internalType": "uint256",
          "name": "",
          "type": "uint256"
        }
      ],
      "stateMutability": "view",
      "type": "function"
    },
    {
      "inputs": [
        {
          "internalType": "uint256",
          "name": "relicId",
          "type": "uint256"
        },
        {
          "internalType": "uint256",
          "name": "depositAmount",
          "type": "uint256"
        }
      ],
      "name": "onDeposit",
      "outputs": [],
      "stateMutability": "nonpayable",
      "type": "function"
    },
    {
      "inputs": [
        {
          "internalType": "uint256",
          "name": "relicId",
          "type": "uint256"
        },
        {
          "internalType": "uint256",
          "name": "rewardAmount",
          "type": "uint256"
        }
      ],
      "name": "onOathReward",
      "outputs": [],
      "stateMutability": "nonpayable",
      "type": "function"
    },
    {
      "inputs": [
        {
          "internalType": "uint256",
          "name": "relicId",
          "type": "uint256"
        },
        {
          "internalType": "uint256",
          "name": "withdrawalAmount",
          "type": "uint256"
        }
      ],
      "name": "onWithdraw",
      "outputs": [],
      "stateMutability": "nonpayable",
      "type": "function"
    },
    {
      "inputs": [
        {
          "internalType": "uint256",
          "name": "relicId",
          "type": "uint256"
        },
        {
          "internalType": "uint256",
          "name": "oathAmount",
          "type": "uint256"
        }
      ],
      "name": "pendingTokens",
      "outputs": [
        {
          "internalType": "contract IERC20[]",
          "name": "rewardTokens",
          "type": "address[]"
        },
        {
          "internalType": "uint256[]",
          "name": "rewardAmounts",
          "type": "uint256[]"
        }
      ],
      "stateMutability": "view",
      "type": "function"
    },
    {
      "inputs": [],
      "name": "reliquary",
      "outputs": [
        {
          "internalType": "contract IReliquary",
          "name": "",
          "type": "address"
        }
      ],
      "stateMutability": "view",
      "type": "function"
    },
    {
      "inputs": [],
      "name": "rewardMultiplier",
      "outputs": [
        {
          "internalType": "uint256",
          "name": "",
          "type": "uint256"
        }
      ],
      "stateMutability": "view",
      "type": "function"
    },
    {
      "inputs": [],
      "name": "rewardToken",
      "outputs": [
        {
          "internalType": "contract IERC20",
          "name": "",
          "type": "address"
        }
      ],
      "stateMutability": "view",
      "type": "function"
    }
  ],
  "bytecode": {
    "object": "0x610140346101c057601f610dfe38819003918201601f19168301916001600160401b038311848410176101c55780849260c0946040528339810103126101c05780516020820151604083015160608401516080850151919490936001600160a01b03939184841684036101c05760a0015193841684036101c0578515610189576201518085106101445760805260e05261010093845261012092835260a05260c05260405190610c2292836101dc84396080518381816103850152818161046701526105b1015260a05183818160ba015281816104ce0152818161058a015261091b015260c051838181610101015281816101690152818161028a015281816104300152610712015260e0518381816103fb0152818161068901526108f90152518281816103c0015261074a01525181818161034a015281816106d901526109560152f35b60405162461bcd60e51b815260206004820152601f60248201527f706c6561736520736574206120726561736f6e61626c6520636164656e6365006044820152606490fd5b60405162461bcd60e51b815260206004820152600f60248201526e6e6f206d696e696d756d207365742160881b6044820152606490fd5b600080fd5b634e487b7160e01b600052604160045260246000fdfe6040608081526004908136101561001557600080fd5b600091823560e01c90816303004b47146107005781630c155f03146105415781633726cea81461051a5781634a29330d1461041e5781634f0c563f146103e357816352d6804d146103a85781636f2c590a1461036d578163ad94bd1b14610332578163bef26de014610277578163d6ed754d1461013057508063e754de63146100ed5763f7c618c1146100a757600080fd5b346100e957816003193601126100e957517f00000000000000000000000000000000000000000000000000000000000000006001600160a01b03168152602090f35b5080fd5b50346100e957816003193601126100e957517f00000000000000000000000000000000000000000000000000000000000000006001600160a01b03168152602090f35b9050346102735760208060031936011261026f5782516331a9108f60e11b81528235818401819052906001600160a01b039083816024817f000000000000000000000000000000000000000000000000000000000000000086165afa908115610265578791610238575b501633036101f75784528381526101ba83852054858581205542336108e1565b156101c457505051f35b606492519162461bcd60e51b8352820152601060248201526f6e6f7468696e6720746f20636c61696d60801b6044820152fd5b50606492519162461bcd60e51b8352820152601960248201527f796f7520646f206e6f74206f776e20746869732052656c6963000000000000006044820152fd5b6102589150843d861161025e575b6102508183610893565b8101906108b5565b3861019a565b503d610246565b86513d89823e3d90fd5b8380fd5b8280fd5b90503461027357610287366107c2565b507f00000000000000000000000000000000000000000000000000000000000000006001600160a01b031691906020906102c23385146107dd565b808652858252602485872054938787812055865195869384926331a9108f60e11b84528301525afa801561032557610303928591610307575b5042906108e1565b5051f35b61031f915060203d811161025e576102508183610893565b386102fb565b50505051903d90823e3d90fd5b5050346100e957816003193601126100e957602090517f00000000000000000000000000000000000000000000000000000000000000008152f35b5050346100e957816003193601126100e957602090517f00000000000000000000000000000000000000000000000000000000000000008152f35b5050346100e957816003193601126100e957602090517f00000000000000000000000000000000000000000000000000000000000000008152f35b5050346100e957816003193601126100e957602090517f00000000000000000000000000000000000000000000000000000000000000008152f35b9050346102735761042e366107c2565b7f00000000000000000000000000000000000000000000000000000000000000006001600160a01b031692916104653385146107dd565b7f0000000000000000000000000000000000000000000000000000000000000000918261049157868651f35b6127106104a2602094602493610838565b0493865195869384926331a9108f60e11b84528301525afa8015610325576104f29285916104fc575b507f00000000000000000000000000000000000000000000000000000000000000006109a1565b3880808080868651f35b610514915060203d811161025e576102508183610893565b386104cb565b90503461027357602036600319011261027357602092829135815280845220549051908152f35b8383346100e957610551366107c2565b93909180519361056085610861565b60019586865260209283870194843687376127106105d66105808a61097e565b6001600160a01b037f00000000000000000000000000000000000000000000000000000000000000008116909152947f000000000000000000000000000000000000000000000000000000000000000090610838565b049684528385528184205480151590816106cc575b50610684575b50908197959794939294519161060683610861565b8683528383019884368b3761061a8461097e565b528051978189019189525180915260608801949186905b82821061066d5750505050858303868301525180835291810195925b82811061065a5785870386f35b835187529581019592810192840161064d565b835181168752958501959285019290880190610631565b9590957f000000000000000000000000000000000000000000000000000000000000000082018092116106b9575094886105f1565b634e487b7160e01b845260119052602483fd5b6106d79150426108d4565b7f000000000000000000000000000000000000000000000000000000000000000011158a6105eb565b90503461027357610710366107c2565b7f00000000000000000000000000000000000000000000000000000000000000006001600160a01b03169291906107483385146107dd565b7f00000000000000000000000000000000000000000000000000000000000000001115610776575b50505051f35b806020918652858252602485872054934287892055865195869384926331a9108f60e11b84528301525afa8015610325576107b9928591610307575042906108e1565b50388080610770565b60409060031901126107d8576004359060243590565b600080fd5b156107e457565b60405162461bcd60e51b815260206004820152602660248201527f4f6e6c792052656c6971756172792063616e2063616c6c20746869732066756e60448201526531ba34b7b71760d11b6064820152608490fd5b806000190482118115151661084b570290565b634e487b7160e01b600052601160045260246000fd5b6040810190811067ffffffffffffffff82111761087d57604052565b634e487b7160e01b600052604160045260246000fd5b90601f8019910116810190811067ffffffffffffffff82111761087d57604052565b908160209103126107d857516001600160a01b03811681036107d85790565b9190820391821161084b57565b91801515918261094a575b5050156109445761093f907f0000000000000000000000000000000000000000000000000000000000000000907f00000000000000000000000000000000000000000000000000000000000000006109a1565b600190565b50600090565b61095492506108d4565b7f0000000000000000000000000000000000000000000000000000000000000000111538806108ec565b80511561098b5760200190565b634e487b7160e01b600052603260045260246000fd5b60405163a9059cbb60e01b60208083019182526001600160a01b03948516602484015260448084019690965294825292608082019267ffffffffffffffff9291908385118386101761087d578460405216906109fc84610861565b8584527f5361666545524332303a206c6f772d6c6576656c2063616c6c206661696c656460a0820152600080958192519082855af1903d15610b0d573d928311610af95790610a6b93929160405192610a5e88601f19601f8401160185610893565b83523d868885013e610b18565b805180610a79575b50505050565b818491810103126100e95782015190811591821503610af65750610a9f57808080610a73565b6084906040519062461bcd60e51b82526004820152602a60248201527f5361666545524332303a204552433230206f7065726174696f6e20646964206e6044820152691bdd081cdd58d8d9595960b21b6064820152fd5b80fd5b634e487b7160e01b85526041600452602485fd5b90610a6b9392506060915b91929015610b7a5750815115610b2c575090565b3b15610b355790565b60405162461bcd60e51b815260206004820152601d60248201527f416464726573733a2063616c6c20746f206e6f6e2d636f6e74726163740000006044820152606490fd5b825190915015610b8d5750805190602001fd5b6040519062461bcd60e51b82528160208060048301528251908160248401526000935b828510610bd3575050604492506000838284010152601f80199101168101030190fd5b8481018201518686016044015293810193859350610bb056fea2646970667358221220d21b661881612d13e0835053c5e245ad6729ed30b8ff5d23076e3a78740d59e464736f6c63430008100033",
    "linkReferences": {}
  },
  "methodIdentifiers": {
    "cadence()": "ad94bd1b",
    "claimDepositBonus(uint256)": "d6ed754d",
    "depositBonus()": "4f0c563f",
    "lastDepositTime(uint256)": "3726cea8",
    "minimum()": "52d6804d",
    "onDeposit(uint256,uint256)": "03004b47",
    "onOathReward(uint256,uint256)": "4a29330d",
    "onWithdraw(uint256,uint256)": "bef26de0",
    "pendingTokens(uint256,uint256)": "0c155f03",
    "reliquary()": "e754de63",
    "rewardMultiplier()": "6f2c590a",
    "rewardToken()": "f7c618c1"
  },
  "id": 1
}